:020000040000FA
:100000000C945D000C9485000C9485000C94850084
:100010000C9485000C9485000C9485000C9485004C
:100020000C9485000C9485000C9485000C9485003C
:100030000C9485000C9485000C9485000C9485002C
:100040000C9434030C9485000C9402030C94DC0291
:100050000C9485000C9485000C9485000C9485000C
:100060000C9485000C94850000000008000201003B
:100070000003040700000000000000000000000072
:10008000250028002B0000000000240027002A0083
:10009000040404040404040402020202020203032E
:1000A0000303030301020408102040800102040836
:1000B0001020010204081020CD0511241FBECFEF2F
:1000C000D8E0DEBFCDBF11E0A0E0B1E0E4E5FCE0A8
:1000D00002C005900D92A431B107D9F721E0A4E147
:1000E000B1E001C01D92AC3BB207E1F710E0CDE5F5
:1000F000D0E004C02197FE010E940E06CC35D10746
:10010000C9F70E947E030C9428060C940000AF925D
:10011000BF92CF92DF92EF92FF920F931F93CF93F4
:10012000DF936C017B018B01040F151FEB015E0156
:10013000AE18BF08C017D10759F06991D601ED91EB
:10014000FC910190F081E02DC6010995892B79F78A
:10015000C501DF91CF911F910F91FF90EF90DF903C
:10016000CF90BF90AF900895FC01538D448D252F03
:1001700030E0842F90E0821B930B541710F0CF9641
:10018000089501970895FC01918D828D981761F073
:10019000A28DAE0FBF2FB11D5D968C91928D9F5F8A
:1001A0009F73928F90E008958FEF9FEF0895FC0169
:1001B000918D828D981731F0828DE80FF11D858D1C
:1001C00090E008958FEF9FEF0895FC01918D228DAF
:1001D000892F90E0805C9F4F821B91098F73992734
:1001E00008958FE191E00E94E50021E0892B09F458
:1001F00020E0822F089580E090E0892B29F00E9472
:10020000F10081110C9400000895FC01A48DA80F49
:10021000B92FB11DA35ABF4F2C91848D90E0019648
:100220008F739927848FA689B7892C93A089B18968
:100230008C91837080648C93938D848D981306C009
:100240000288F389E02D80818F7D80830895EF926D
:10025000FF920F931F93CF93DF93EC0181E0888F80
:100260009B8D8C8D98131AC0E889F989808185FF50
:1002700015C09FB7F894EE89FF896083E889F989F2
:1002800080818370806480839FBF81E090E0DF91F4
:10029000CF911F910F91FF90EF900895F62E0B8D47
:1002A00010E00F5F1F4F0F731127E02E8C8D8E1102
:1002B0000CC00FB607FCFACFE889F989808185FF69
:1002C000F5CFCE010E940501F1CFEB8DEC0FFD2F94
:1002D000F11DE35AFF4FF0829FB7F8940B8FEA8924
:1002E000FB8980818062CFCFCF93DF93EC01888D33
:1002F0008823B9F0AA89BB89E889F9898C9185FDA1
:1003000003C0808186FD0DC00FB607FCF7CF8C912E
:1003100085FFF2CF808185FFEDCFCE010E940501E0
:10032000E9CFDF91CF91089590E0FC01E859FF4FAC
:100330002491FC01EC55FF4F3491FC01E057FF4F35
:10034000E491EE23C9F0222339F0233001F1A8F41F
:10035000213019F1223029F1F0E0EE0FFF1FE458AF
:10036000FF4FA591B4918FB7F894EC91611126C01D
:1003700030953E233C938FBF08952730A9F0283055
:10038000C9F0243049F7809180008F7D03C08091AF
:1003900080008F7780938000DFCF84B58F7784BD16
:1003A000DBCF84B58F7DFBCF8091B0008F778093BA
:1003B000B000D2CF8091B0008F7DF9CF3E2BDACF45
:1003C0003FB7F8948091190190911A01A0911B01F7
:1003D000B0911C0126B5A89B05C02F3F19F00196CE
:1003E000A11DB11D3FBFBA2FA92F982F8827BC018F
:1003F000CD01620F711D811D911D42E0660F771FB7
:10040000881F991F4A95D1F708958F929F92AF92B6
:10041000BF92CF92DF92EF92FF920E94E0014B01D8
:100420005C0188ECC82ED12CE12CF12C0E94E0015B
:10043000681979098A099B09683E7340810591050D
:10044000A8F321E0C21AD108E108F10888EE880E6D
:1004500083E0981EA11CB11CC114D104E104F10475
:1004600029F7FF90EF90DF90CF90BF90AF909F90D3
:100470008F9008958A30910508F09DC0FC01ED5BD6
:10048000FD4F0C940E064D025B0277028D0297021F
:100490009D02B702C102D302D50260E088E00E944B
:1004A000940161E087E00E94940161E086E00E948F
:1004B000940161E073C060E088E00E94940160E014
:1004C00087E00E94940160E086E00E94940160E071
:1004D00085E00E94940161E084E00E94940161E063
:1004E00083E00E94940160E082E00C94940161E05A
:1004F00088E00E94940160E087E00E94940161E03E
:1005000086E00E94940161E085E00E94940160E031
:1005100084E00E94940161E025C061E088E00E94CF
:10052000940160E087E00E94940160E0BFCF61E049
:1005300088E00E94940161E0C3CF61E088E00E94FE
:10054000940161E087E00E94940160E086E00E94EF
:10055000940161E085E00E94940161E084E00E94E2
:10056000940160E083E00E94940161E0BDCF61E00E
:1005700088E00E94940161E087E00E94940161E0BC
:10058000E5CF60E088E00E94940160E087E00E948F
:10059000940160E086E00E94940160E085E00E94A2
:1005A000940161E0B5CF61E079CF61E088E00E941D
:1005B000940161E0B7CF08951F920F920FB60F928A
:1005C00011242F933F934F935F936F937F938F9358
:1005D0009F93AF93BF93EF93FF938FE191E00E94BE
:1005E0000501FF91EF91BF91AF919F918F917F9105
:1005F0006F915F914F913F912F910F900FBE0F9090
:100600001F9018951F920F920FB60F9211242F93DF
:100610008F939F93EF93FF93E0912F01F09130011F
:100620008081E0913501F091360182FD1BC09081FF
:10063000809138018F5F8F7320913901821741F0CB
:10064000E0913801F0E0E15EFE4F958F8093380134
:10065000FF91EF919F918F912F910F900FBE0F906F
:100660001F9018958081F4CF1F920F920FB60F92B2
:1006700011242F933F938F939F93AF93BF938091B8
:10068000150190911601A0911701B09118013091B8
:10069000140123E0230F2D3758F50196A11DB11D3C
:1006A000209314018093150190931601A0931701D4
:1006B000B09318018091190190911A01A0911B012A
:1006C000B0911C010196A11DB11D80931901909359
:1006D0001A01A0931B01B0931C01BF91AF919F9190
:1006E0008F913F912F910F900FBE0F901F901895F3
:1006F00026E8230F0296A11DB11DD2CF789484B5B0
:10070000826084BD84B5816084BD85B5826085BD0D
:1007100085B5816085BD80916E00816080936E009B
:10072000109281008091810082608093810080918D
:10073000810081608093810080918000816080933E
:1007400080008091B10084608093B1008091B000FE
:1007500081608093B00080917A00846080937A00F9
:1007600080917A00826080937A0080917A00816023
:1007700080937A0080917A00806880937A0010924A
:10078000C10022E030E0F901EC55FF4F4491F9013E
:10079000E057FF4F8491882399F090E0880F991FCC
:1007A000FC01EA57FF4FA591B491FC01E458FF4FBB
:1007B000859194918FB7F894EC91E42BEC938FBFD3
:1007C0002F5F3F4F2C303105F1F6E0912F01F09172
:1007D000300182E08083E0912B01F0912C011082A6
:1007E000E0912D01F0912E018FEC80831092370162
:1007F000E0913301F091340186E08083E091310192
:10080000F0913201808180618083E0913101F0912B
:100810003201808188608083E0913101F091320162
:10082000808180688083E0913101F0913201808184
:100830008F7D808390E080E00E943A0222242394FE
:10084000312C34E8432E33E0532E40E2642E43E053
:10085000742E5CEBE52E52E0F52E68E5C62E62E0C4
:10086000D62E94EF892E99249394C0E9D1E00CE21E
:1008700011E088ECA82EB12C8FE191E00E94E500F8
:10088000181619060CF042C18FE191E00E94C300D6
:100890002091000130910101E0EDE80FEA30F8F419
:1008A0000E2E000CFF0BE65AFB4FA9014F5F5F4F66
:1008B0000C940E06640480049E04BB04D804F50462
:1008C00012052F054C0569052130310521F41092E0
:1008D0001E0110921D0150930101409300012091CF
:1008E0000001309101012430310521F430920101E1
:1008F00020920001682F8FE191E00E942701BCCF78
:100900002130310539F424E630E030931E01209384
:100910001D01E1CF2230310539F420911D013091C4
:100920001E01265F3F4FF1CF23303105A1F6209104
:100930001D0130911E012F5F3F4FE7CF2130310560
:1009400029F4B0921E01A0921D01C5CF22303105BD
:1009500039F420911D0130911E012C5E3F4FD5CFFF
:100960002330310509F0B7CF20911D0130911E01D0
:100970002E5F3F4FCACF2130310529F410931E015D
:1009800000931D01A8CF2230310539F420911D01BB
:1009900030911E01225E3F4FB8CF2330310509F060
:1009A0009ACF20911D0130911E012D5F3F4FADCF99
:1009B0002130310529F4D0931E01C0931D018BCF46
:1009C0002230310539F420911D0130911E01285D3E
:1009D0003F4F9BCF2330310509F07DCF20911D0182
:1009E00030911E012C5F3F4F90CF2130310529F40B
:1009F00090921E0180921D016ECF2230310539F494
:100A000020911D0130911E012E5C3F4F7ECF23307F
:100A1000310509F060CF20911D0130911E012B5F3F
:100A20003F4F73CF2130310529F4D0921E01C0927F
:100A30001D0151CF2230310539F420911D01309133
:100A40001E01245C3F4F61CF2330310509F043CFB5
:100A500020911D0130911E012A5F3F4F56CF21305A
:100A6000310529F4F0921E01E0921D0134CF2230AD
:100A7000310539F420911D0130911E012A5B3F4F51
:100A800044CF2330310509F026CF20911D0130914C
:100A90001E01295F3F4F39CF2130310529F4709273
:100AA0001E0160921D0117CF2230310539F42091CB
:100AB0001D0130911E01205B3F4F27CF23303105B0
:100AC00009F009CF20911D0130911E01285F3F4F91
:100AD0001CCF2130310529F450921E0140921D0196
:100AE000FACE2230310539F420911D0130911E01DA
:100AF000265A3F4F0ACF2330310509F0ECCE209122
:100B00001D0130911E01275F3F4FFFCE00911D0157
:100B100010911E01C80164E670E00E94FA055C01B4
:100B2000CB010E943A0261E089E00E9494010E9498
:100B3000050260E089E00E949401CAE0D0E0C501AE
:100B4000BE010E94FA05CB010E943A0261E08AE0F0
:100B50000E9494010E94050260E08AE00E949401D4
:100B6000C801BE010E94FA050E943A0261E08BE0D2
:100B70000E9494010E94050260E08BE00E949401B3
:100B800080E090E0892B09F470CE0E94F100882368
:100B900009F467CE0E94000064CEEFE1F1E0138219
:100BA000128288EE93E0A0E0B0E084839583A68370
:100BB000B78386E091E09183808385EC90E0958710
:100BC000848784EC90E09787868780EC90E0918B17
:100BD000808B81EC90E0938B828B82EC90E0958B04
:100BE000848B86EC90E0978B868B118E128E138E01
:100BF000148E089597FB072E16F4009407D077FD06
:100C000009D00E94140607FC05D03EF4909581950A
:100C10009F4F0895709561957F4F0895EE0FFF1FC8
:100C20000590F491E02D0994AA1BBB1B51E107C06C
:100C3000AA1FBB1FA617B70710F0A61BB70B881F6C
:100C4000991F5A95A9F780959095BC01CD010895FB
:100C5000F894FFCF01000000000027018700B400D6
:080C60007401E500C300D70098
:107E0000112484B714BE81FFF0D085E080938100F7
:107E100082E08093C00088E18093C10086E0809377
:107E2000C20080E18093C4008EE0C9D0259A86E02C
:107E300020E33CEF91E0309385002093840096BBD3
:107E4000B09BFECF1D9AA8958150A9F7CC24DD24C4
:107E500088248394B5E0AB2EA1E19A2EF3E0BF2EE7
:107E6000A2D0813461F49FD0082FAFD0023811F036
:107E7000013811F484E001C083E08DD089C08234E0
:107E800011F484E103C0853419F485E0A6D080C0E4
:107E9000853579F488D0E82EFF2485D0082F10E0AE
:107EA000102F00270E291F29000F111F8ED06801E7
:107EB0006FC0863521F484E090D080E0DECF843638
:107EC00009F040C070D06FD0082F6DD080E0C81688
:107ED00080E7D80618F4F601B7BEE895C0E0D1E017
:107EE00062D089930C17E1F7F0E0CF16F0E7DF06D8
:107EF00018F0F601B7BEE89568D007B600FCFDCFD4
:107F0000A601A0E0B1E02C9130E011968C91119780
:107F100090E0982F8827822B932B1296FA010C0160
:107F200087BEE89511244E5F5F4FF1E0A038BF0790
:107F300051F7F601A7BEE89507B600FCFDCF97BE46
:107F4000E89526C08437B1F42ED02DD0F82E2BD052
:107F50003CD0F601EF2C8F010F5F1F4F84911BD097
:107F6000EA94F801C1F70894C11CD11CFA94CF0C13
:107F7000D11C0EC0853739F428D08EE10CD085E9AC
:107F80000AD08FE07ACF813511F488E018D01DD067
:107F900080E101D065CF982F8091C00085FFFCCF94
:107FA0009093C60008958091C00087FFFCCF809118
:107FB000C00084FD01C0A8958091C6000895E0E648
:107FC000F0E098E1908380830895EDDF803219F02E
:107FD00088E0F5DFFFCF84E1DECF1F93182FE3DFCA
:107FE0001150E9F7F2DF1F91089580E0E8DFEE27F6
:047FF000FF270994CA
:027FFE00040479
:00000001FF
