:020000040000FA
:100000000C9463000C948B000C948B000C9458029D
:100010000C9458020C9458020C948B000C948B0096
:100020000C948B000C948B000C948B000C948B0024
:100030000C948B000C948B000C948B000C948B0014
:100040000C940E020C948B000C948B000C948B007F
:100050000C948B000C948B000C948B000C948B00F4
:100060000C948B000C948B000000000023002600F1
:10007000290000000000240027002A0000000000E2
:10008000250028002B0004040404040404040202D4
:100090000202020203030303030301020408102007
:1000A0004080010204081020010204081020000012
:1000B0000008000201000003040700000000000027
:1000C00000004104F00411241FBECFEFD8E0DEBFD2
:1000D000CDBF21E0AAE1B1E001C01D92A039B20775
:1000E000E1F711E0A0E0B1E0E0EFFEE002C0059032
:1000F0000D92AA31B107D9F710E0C2E6D0E004C0F2
:100100002197FE010E947305C136D107C9F70E94ED
:10011000D0020C946B070C9400000895AF92BF922C
:10012000CF92DF92EF92FF920F931F93CF93DF93C3
:100130006C017B018B01040F151FEB015E01AE18F2
:10014000BF08C017D10759F06991D601ED91FC9114
:100150000190F081E02DC6010995892B79F7C50141
:10016000DF91CF911F910F91FF90EF90DF90CF9093
:10017000BF90AF90089590E0FC01E255FF4F2491AD
:10018000FC01E656FF4F3491FC01EA57FF4FE49122
:10019000EE23C9F0222339F0233001F1A8F42130F5
:1001A00019F1223029F1F0E0EE0FFF1FE458FF4F64
:1001B000A591B4918FB7F894EC91611126C0309558
:1001C0003E233C938FBF08952730A9F02830C9F013
:1001D000243049F7809180008F7D03C0809180009A
:1001E0008F7780938000DFCF84B58F7784BDDBCF9E
:1001F00084B58F7DFBCF8091B0008F778093B00066
:10020000D2CF8091B0008F7DF9CF3E2BDACFCF9344
:10021000DF9390E0FC01E656FF4F24918A579F4FF1
:10022000FC0184918823D1F090E0880F991FFC0194
:10023000EE58FF4FA591B491FC01E458FF4FC591D2
:10024000D49161110EC09FB7F8948C91E22FE09584
:100250008E238C932881E223E8839FBFDF91CF9187
:1002600008958FB7F894EC91E22BEC938FBFF6CF03
:100270003FB7F89480915F0190916001A091610176
:10028000B091620126B5A89B05C02F3F19F00196D9
:10029000A11DB11D3FBFBA2FA92F982F8827BC01E0
:1002A000CD01620F711D811D911D42E0660F771F08
:1002B000881F991F4A95D1F70895209165013091C3
:1002C00066012817390771F49091630180916401E8
:1002D000981741F0E0916301F0E0E65EFE4F808107
:1002E00090E008958FEF9FEF08950895EF92FF92A9
:1002F0000F931F93CF93DF93DC015C96ED90FC90FE
:100300005D97E114F10479F481E090E013969C93F9
:100310008E93129790E080E0DF91CF911F910F9123
:10032000FF90EF9008955196ED91FC915297509661
:100330008C915097982F90950FB75E962C915E9761
:10034000122F127021FD6095F8942081112319F16C
:10035000282B2083E7012197F1F728E0462F50E072
:10036000308160FF1AC0382B3083E7012197F1F705
:10037000BA0175956795215089F7112381F0808125
:10038000892380830FBF5C968D919C910197F1F733
:1003900081E090E0C1CF2923DCCF3923E5CF9081E4
:1003A000892BEFCF2091650130916601281739071D
:1003B00071F4809164012091630190E0805C9F4F13
:1003C000821B910960E470E00E944B05089590E063
:1003D00080E0089520916501309166012817390762
:1003E000B9F49091630180916401981789F0E091CC
:1003F0006301F0E0E65EFE4F80812091630130E012
:100400002F5F3F4F2F7333272093630190E00895B0
:100410008FEF9FEF089590E080E008951F920F9274
:100420000FB60F9211242F933F938F939F93AF9307
:10043000BF9380915B0190915C01A0915D01B091AF
:100440005E0130915A0123E0230F2D3758F50196B4
:10045000A11DB11D20935A0180935B0190935C0113
:10046000A0935D01B0935E0180915F019091600166
:10047000A0916101B09162010196A11DB11D80930F
:100480005F0190936001A0936101B0936201BF91FD
:10049000AF919F918F913F912F910F900FBE0F9031
:1004A0001F90189526E8230F0296A11DB11DD2CFEB
:1004B0001F920F920FB60F9211242F933F934F93D9
:1004C0005F936F937F938F939F93AF93BF93EF93BC
:1004D000FF93E0916501F0916601309749F0A685A0
:1004E000B7858585968D91FF14C09C918923A1F4D1
:1004F000FF91EF91BF91AF919F918F917F916F91FC
:100500005F914F913F912F910F900FBE0F901F90D1
:1005100018959C91892361F7A389B4899C91858959
:10052000809589238C93868997890197F1F7608D4F
:10053000718DA685B785558538E020E0CB01019700
:10054000F1F7822F90E095958795282F4C914523C0
:1005500009F02068315091F7868D81FD20958091BA
:10056000640190E001968F739927309163013817E9
:1005700099F0A0916401B0E0A65EBE4F2C938093E9
:100580006401828D938D0197F1F7A389B4898C91D1
:100590009589892B8C93ACCF868D8160868FF1CF26
:1005A000CF93DF9300D0CDB7DEB7789484B5826067
:1005B00084BD84B5816084BD85B5826085BD85B507
:1005C000816085BD80916E00816080936E00109285
:1005D0008100809181008260809381008091810000
:1005E0008160809381008091800081608093800091
:1005F0008091B10084608093B1008091B0008160EF
:100600008093B00080917A00846080937A0080911A
:100610007A00826080937A0080917A008160809372
:100620007A0080917A00806880937A001092C100ED
:100630001092880110928701109286011092850114
:1006400010928401109283018DE991E090938A01C8
:100650008093890190917901963108F047C02DEB84
:1006600030E030938401209383012BE931E0309313
:100670008601209385012CE231E03093880120939C
:1006800087012091680084E0983048F031E09E3086
:1006900008F430E081E001C0880F3A95EAF7822B38
:1006A000809368002DE630E0983050F02BE630E083
:1006B0009E3030F02CE630E0963110F030E020E053
:1006C0003093810120938001292F30E0983008F089
:1006D000B9C081E001C0880F9A95EAF78093820142
:1006E0008091890190918A010197F1F780918701AA
:1006F00090918801892B49F1E0916501F0916601A3
:1007000021E0ED36F20709F1309739F0A389B48979
:100710009C918589809589238C9380918B018E7F14
:1007200080938B0110926401109263018DE691E039
:100730009093660180936501E0918001F0918101C1
:10074000808190918201892B808361E084E00E9406
:100750000701CE0101966C0190E0292E90E0392E20
:100760008DE691E00E94EA01782E89831A82F601D3
:1007700001900020E9F731978F010C191D09B8018C
:100780006F5F7F4F90E080E00E949E067C010097A3
:1007900009F465C0FC011082B6010E9464078091D3
:1007A000670190916801009709F45EC0E114F104BB
:1007B00009F458C02091690130916A01201731076E
:1007C00008F450C0B7010E94640710936C010093B5
:1007D0006B01C7010E941506FCE461E07F1621F061
:1007E00024E4721204C060E084E00E94BB000E9416
:1007F00038012B013C0184E6882E912CA12CB12CD0
:100800000E9438016419750986099709683E73408A
:1008100081059105A8F381E0881A9108A108B10823
:1008200098EE490E93E0591E611C711C81149104CD
:10083000A104B10429F72114310409F491CF0E94D5
:1008400000008ECF9E3040F42850310981E001C075
:10085000880F2A95EAF742CF2E503109F7CF10E0E2
:1008600000E09DCF0E941506F0926801E0926701BA
:1008700010936A010093690110936C0100936B015E
:10088000ABCF1092700110926F0188EE93E0A0E060
:10089000B0E08093710190937201A0937301B093C3
:1008A00074018AE091E090936E0180936D01109243
:1008B000840110928301109286011092850110929A
:1008C00088011092870110928A011092890160912B
:1008D0008B016E7F6D7F60938B016695617081E007
:1008E00068270E94BB0061E081E00E940701EBE9FC
:1008F000F0E0E491E0937D01E7E8F0E0E491F0E0DE
:10090000EE0FFF1FE458FF4F8591949190937F0164
:1009100080937E0160E080E00E94070180918B015E
:1009200081FD04C061E080E00E94BB00109279016B
:10093000EAE9F0E0E491E0937A01E6E8F0E0E4919E
:10094000F0E0EE0FFF1FE859FF4F859194919093CF
:100950007C0180937B0110926801109267011092D4
:100960006A011092690110926C0110926B0161E0B2
:1009700070E090E080E00E949E060097E1F0909386
:1009800068018093670110926A01109269012091B9
:100990006B0130916C01232B11F4FC011082109239
:1009A0006C0110926B0168E171E080916701909198
:1009B00068010C9464078091670190916801009729
:1009C00011F00E94150610926801109267011092B2
:1009D0006C0110926B0110926A01109269010895E6
:1009E0008091670190916801009711F00E941506AF
:1009F0008AE091E090936E0180936D018091650192
:100A0000909166018D56914071F4E0918001F091D2
:100A10008101908180918201809589238083109249
:100A200066011092650108952F923F924F925F9256
:100A30006F927F928F929F92AF92BF92CF92DF92EE
:100A4000EF92FF920F931F93CF93DF93CDB7DEB753
:100A5000CA1BDB0B0FB6F894DEBF0FBECDBF0994E7
:100A60002A88398848885F846E847D848C849B843E
:100A7000AA84B984C884DF80EE80FD800C811B814C
:100A8000AA81B981CE0FD11D0FB6F894DEBF0FBE7B
:100A9000CDBFED01089597FB072E16F4009407D003
:100AA00077FD09D00E945F0507FC05D03EF49095C4
:100AB00081959F4F0895709561957F4F0895AA1B6A
:100AC000BB1B51E107C0AA1FBB1FA617B70710F039
:100AD000A61BB70B881F991F5A95A9F7809590956B
:100AE000BC01CD010895EE0FFF1F0590F491E02D9C
:100AF00009940F931F93CF93DF938230910510F4E5
:100B000082E090E0E0918E01F0918F0130E020E0F2
:100B1000B0E0A0E0309799F42115310509F44AC0FE
:100B2000281B390B24303105D8F58A819B8161154A
:100B3000710589F1FB0193838283FE0111C040811D
:100B400051810281138148175907E0F0481759076E
:100B500099F4109761F012960C93129713961C93C8
:100B60003296CF01DF91CF911F910F91089500939D
:100B70008E0110938F01F4CF2115310551F04217EA
:100B8000530738F0A901DB019A01BD01DF01F8012B
:100B9000C1CFEF01F9CF90938F0180938E01CDCF1C
:100BA000FE01E20FF31F81939193225031093983A3
:100BB0002883D7CF20918C0130918D01232B41F4D4
:100BC000209102013091030130938D0120938C011B
:100BD00020910001309101012115310541F42DB71B
:100BE0003EB74091040150910501241B350BE09163
:100BF0008C01F0918D01E217F307A0F42E1B3F0B3F
:100C00002817390778F0AC014E5F5F4F241735077E
:100C100048F04E0F5F1F50938D0140938C018193DC
:100C200091939FCFF0E0E0E09CCFCF93DF930097CC
:100C3000E9F0FC01329713821282A0918E01B091EB
:100C40008F01ED0130E020E01097A1F42081318187
:100C5000820F931F20918C0130918D012817390745
:100C600009F061C0F0938D01E0938C01DF91CF9189
:100C70000895EA01CE17DF07E8F54A815B819E01FE
:100C800041155105B1F7E901FB83EA834991599177
:100C9000C40FD51FEC17FD0761F480819181029686
:100CA000840F951FE90199838883828193819B83B7
:100CB0008A83F0E0E0E012968D919C911397009763
:100CC000B9F52D913C911197CD010296820F931F9A
:100CD00020918C0130918D012817390739F6309712
:100CE00051F510928F0110928E01B0938D01A09357
:100CF0008C01BCCFD383C28340815181840F951F67
:100D0000C817D90761F44E5F5F4F88819981480FFA
:100D1000591F518340838A819B819383828321154C
:100D2000310509F0B0CFF0938F01E0938E019ECF93
:100D3000FD01DC01C0CF13821282D7CFB0E0A0E06A
:100D4000E4EAF6E00C9416058C01009751F4CB010F
:100D50000E9479058C01C801CDB7DEB7E0E10C94A3
:100D60003205FC01E60FF71F9C0122503109E21702
:100D7000F30708F49DC0D901CD91DC911197C617F6
:100D8000D70798F0C530D10530F3CE010497861708
:100D9000970708F3C61BD70B2297C193D1936D9386
:100DA0007C93CF010E941506D6CF5B01AC1ABD0A19
:100DB0004C018C0E9D1EA0918E01B0918F01512C83
:100DC000412CF12CE12C109731F580918C01909100
:100DD0008D018815990509F05CC04616570608F084
:100DE00058C08091000190910101009741F48DB7A6
:100DF0009EB74091040150910501841B950BE817A3
:100E0000F90708F055C0F0938D01E0938C01F901CA
:100E100071836083A0CF8D919C91119712966C90F5
:100E2000129713967C901397A815B90559F56C0184
:100E300042E0C40ED11CCA14DB0420F1AC014A19F3
:100E40005B09DA011296159780F0628273825183F2
:100E50004083D9016D937C93E114F10471F0D701C3
:100E60001396FC93EE93129776CF22968C0F9D1FCC
:100E7000F90191838083F301EFCFF0938F01E09329
:100E80008E0169CF4816590608F42C017D01D30163
:100E90009ACFCB010E9479057C01009749F0AE0101
:100EA000B8010E945B07C8010E941506870153CF55
:100EB00010E000E050CFFB01DC0102C001900D9278
:100EC00041505040D8F70895FB01DC0101900D928C
:100ED0000020E1F7089510E0C2E6D0E004C0FE0172
:100EE0000E9473052196C336D107C9F7F894FFCF46
:100EF0000000900180000000000076018E000B02CF
:0A0F00007501D201EA015D01000055
:107E0000112484B714BE81FFF0D085E080938100F7
:107E100082E08093C00088E18093C10086E0809377
:107E2000C20080E18093C4008EE0C9D0259A86E02C
:107E300020E33CEF91E0309385002093840096BBD3
:107E4000B09BFECF1D9AA8958150A9F7CC24DD24C4
:107E500088248394B5E0AB2EA1E19A2EF3E0BF2EE7
:107E6000A2D0813461F49FD0082FAFD0023811F036
:107E7000013811F484E001C083E08DD089C08234E0
:107E800011F484E103C0853419F485E0A6D080C0E4
:107E9000853579F488D0E82EFF2485D0082F10E0AE
:107EA000102F00270E291F29000F111F8ED06801E7
:107EB0006FC0863521F484E090D080E0DECF843638
:107EC00009F040C070D06FD0082F6DD080E0C81688
:107ED00080E7D80618F4F601B7BEE895C0E0D1E017
:107EE00062D089930C17E1F7F0E0CF16F0E7DF06D8
:107EF00018F0F601B7BEE89568D007B600FCFDCFD4
:107F0000A601A0E0B1E02C9130E011968C91119780
:107F100090E0982F8827822B932B1296FA010C0160
:107F200087BEE89511244E5F5F4FF1E0A038BF0790
:107F300051F7F601A7BEE89507B600FCFDCF97BE46
:107F4000E89526C08437B1F42ED02DD0F82E2BD052
:107F50003CD0F601EF2C8F010F5F1F4F84911BD097
:107F6000EA94F801C1F70894C11CD11CFA94CF0C13
:107F7000D11C0EC0853739F428D08EE10CD085E9AC
:107F80000AD08FE07ACF813511F488E018D01DD067
:107F900080E101D065CF982F8091C00085FFFCCF94
:107FA0009093C60008958091C00087FFFCCF809118
:107FB000C00084FD01C0A8958091C6000895E0E648
:107FC000F0E098E1908380830895EDDF803219F02E
:107FD00088E0F5DFFFCF84E1DECF1F93182FE3DFCA
:107FE0001150E9F7F2DF1F91089580E0E8DFEE27F6
:047FF000FF270994CA
:027FFE00040479
:00000001FF
