:100000000C9461000C9473000C9473000C947300B6
:100010000C9473000C9473000C9473000C94730094
:100020000C9473000C9473000C9473000C94730084
:100030000C9473000C9473000C9473000C94730074
:100040000C9423010C9473000C9473000C947300B3
:100050000C9473000C9473000C9473000C94730054
:100060000C9473000C94730000000000240027001F
:100070002A000000000023002600290000000000E4
:10008000250028002B0004040404040404040202D4
:100090000202020203030303030301020408102007
:1000A0004080010204081020010204081020000012
:1000B0000008000201000003040700000000000027
:1000C000000011241FBECFEFD8E0DEBFCDBF21E07E
:1000D000A0E0B1E001C01D92AF30B207E1F70E948D
:1000E0006D010C945E040C940000833081F028F4C0
:1000F000813099F08230A9F008958730A9F08830D6
:10010000C9F08430B1F4809180008F7D03C080916C
:1001100080008F7780938000089584B58F7784BDA9
:10012000089584B58F7DFBCF8091B0008F77809349
:10013000B00008958091B0008F7DF9CF1F93CF93C9
:10014000DF93E3EBF0E09491EFE9F0E0D491EBE89A
:10015000F0E0C491CC23B9F0182F992319F0892F1E
:100160000E947500EC2FF0E0EE0FFF1FE458FF4FE8
:10017000A591B4918FB7F894EC91111108C0D09566
:10018000DE23DC938FBFDF91CF911F910895DE2B8B
:10019000F8CFCF93DF93282F30E0F901E255FF4FDE
:1001A0008491F901E656FF4FD491F901EA57FF4FC8
:1001B000C491CC23A1F081110E947500EC2FF0E0D6
:1001C000EE0FFF1FEE58FF4FA591B491EC91ED2378
:1001D00081E090E009F480E0DF91CF91089580E024
:1001E00090E0FACFCF93DF9390E0FC01E656FF4F0B
:1001F00024918A579F4FFC0184918823D1F090E08D
:10020000880F991FFC01E859FF4FA591B491FC019B
:10021000E458FF4FC591D49161110EC09FB7F89477
:100220008C91E22FE0958E238C932881E223E88342
:100230009FBFDF91CF9108958FB7F894EC91E22B97
:10024000EC938FBFF6CF1F920F920FB60F9211242F
:100250002F933F938F939F93AF93BF9380910B0105
:1002600090910C01A0910D01B0910E0130910A0105
:1002700023E0230F2D3758F50196A11DB11D2093C2
:100280000A0180930B0190930C01A0930D01B09390
:100290000E018091060190910701A0910801B09193
:1002A00009010196A11DB11D8093060190930701DC
:1002B000A0930801B0930901BF91AF919F918F91D5
:1002C0003F912F910F900FBE0F901F90189526E829
:1002D000230F0296A11DB11DD2CF789484B5826000
:1002E00084BD84B5816084BD85B5826085BD85B5DA
:1002F000816085BD80916E00816080936E00109258
:1003000081008091810082608093810080918100D2
:100310008160809381008091800081608093800063
:100320008091B10084608093B1008091B0008160C1
:100330008093B00080917A00846080937A008091ED
:100340007A00826080937A0080917A008160809345
:100350007A0080917A00806880937A001092C100C0
:1003600061E085E00E94F20060E082E00E94F2001D
:1003700060E083E00E94F20080E4D82E93EBE92E47
:1003800090E0F92E00E010E0D0927C0080917A009D
:10039000806480937A0080917A0086FDFCCF9091F2
:1003A0007800809179008927982789279093050103
:1003B0008093040182E00E94C900019789F482E0E1
:1003C0000E94C9000197D9F3809102019091030125
:1003D000181619062CF40A979093030180930201D2
:1003E00083E00E94C900019789F483E00E94C9005C
:1003F0000197D9F380910201909103018A3F910501
:100400002CF40A969093030180930201C09102019B
:10041000D091030161E085E00E94F200209709F08D
:100420006CC080E00E949E00609104017091050103
:10043000072E000C880B990B0E943C0320E030E053
:1004400040EA50E40E94F10320E030EC4FE754E42E
:100450000E94C80220E030E048EC52E40E94F10320
:100460004B015C0120E030E040EA51E40E94EC03E3
:100470001816E4F5C0910001D0910101BE010D2EC6
:10048000000C880B990B0E943C039B01AC01C50139
:10049000B4010E94EC03181674F48091020190914B
:1004A00003010A9690930301809302012196D09351
:1004B0000101C09300016091000170910101072EBC
:1004C000000C880B990B0E943C039B01AC01C501F9
:1004D000B4010E94C30287FF09C08091020190917C
:1004E00003010A97909303018093020101151105FE
:1004F00009F44ACF0E94000047CFCF3FD10511F445
:1005000081E090CFF7018491833019F140F481307C
:10051000B1F08230C9F0C038D10594F782CF87306E
:1005200011F1883041F18430B1F780918000806210
:1005300080938000D0938B00C0938A0075CF84B5E0
:10054000806884BDC7BD70CF84B5806284BDC8BDDE
:100550006BCF80918000806880938000D093890069
:10056000C093880061CF8091B00080688093B00014
:10057000C093B30059CF8091B00080628093B000E7
:10058000C093B40051CF0E94770308F481E008952E
:100590000E94DC020C94B2030E94AB0358F00E944C
:1005A000A40340F029F45F3F29F00C949B03511100
:1005B0000C94E6030C94A1030E94C30368F39923EF
:1005C000B1F3552391F3951B550BBB27AA2762174F
:1005D0007307840738F09F5F5F4F220F331F441F5C
:1005E000AA1FA9F335D00E2E3AF0E0E832D0915090
:1005F0005040E695001CCAF72BD0FE2F29D0660F7D
:10060000771F881FBB1F261737074807AB07B0E8BF
:1006100009F0BB0B802DBF01FF2793585F4F3AF0C5
:100620009E3F510578F00C949B030C94E6035F3FCA
:10063000E4F3983ED4F3869577956795B795F7954B
:100640009F5FC9F7880F911D9695879597F9089533
:10065000E1E0660F771F881FBB1F621773078407CF
:10066000BA0720F0621B730B840BBA0BEE1F88F7DE
:10067000E0950895E89409C097FB3EF49095809525
:10068000709561957F4F8F4F9F4F9923A9F0F92F58
:1006900096E9BB279395F695879577956795B795D6
:1006A000F111F8CFFAF4BB0F11F460FF1BC06F5FBC
:1006B0007F4F8F4F9F4F16C0882311F096E911C0CE
:1006C000772321F09EE8872F762F05C0662371F0EF
:1006D00096E8862F70E060E02AF09A95660F771F03
:1006E000881FDAF7880F9695879597F90895990FDF
:1006F0000008550FAA0BE0E8FEEF16161706E807EC
:10070000F907C0F012161306E407F50798F0621B0C
:10071000730B840B950B39F40A2661F0232B242BE1
:10072000252B21F408950A2609F4A140A6958FEF00
:10073000811D811D089597F99F6780E870E060E052
:1007400008959FEF80EC089500240A94161617066A
:1007500018060906089500240A94121613061406B2
:1007600005060895092E0394000C11F4882352F015
:10077000BB0F40F4BF2B11F460FF04C06F5F7F4FCD
:100780008F4F9F4F089557FD9058440F551F59F0B4
:100790005F3F71F04795880F97FB991F61F09F3F6E
:1007A00079F087950895121613061406551FF2CF97
:1007B0004695F1DF08C0161617061806991FF1CFE7
:1007C00086957105610508940895E894BB2766270E
:1007D0007727CB0197F908950E94770308F48FEFEC
:1007E00008950E9404040C94B2030E94A40338F0FC
:1007F0000E94AB0320F0952311F00C949B030C9402
:10080000A10311240C94E6030E94C30370F3959F87
:10081000C1F3950F50E0551F629FF001729FBB27F7
:10082000F00DB11D639FAA27F00DB11DAA1F649F93
:100830006627B00DA11D661F829F2227B00DA11D46
:10084000621F739FB00DA11D621F839FA00D611DCC
:10085000221F749F3327A00D611D231F849F600DED
:10086000211D822F762F6A2F11249F5750409AF016
:10087000F1F088234AF0EE0FFF1FBB1F661F771FA2
:10088000881F91505040A9F79E3F510580F00C946D
:100890009B030C94E6035F3FE4F3983ED4F3869504
:1008A00077956795B795F795E7959F5FC1F7FE2B0D
:1008B000880F911D9695879597F90895F894FFCF25
:00000001FF
