:100000000C945E010C948F010C948F010C948F0161
:100010000C948F010C948F010C948F010C948F0120
:100020000C948F010C948F010C948F010C948F0110
:100030000C948F010C948F010C948F010C948F0100
:100040000C948F010C948F010C948F010C948F01F0
:100050000C948F010C948F010C948F010C948203EB
:100060000C948F010C94F6030C94CC030C948F0128
:100070000C948F010C948F010C948F010C948F01C0
:100080000C948F010C948F010C948F010C948F01B0
:100090000C948F010C948F010C948F010C948F01A0
:1000A0000C948F010C948F010C948F010C948F0190
:1000B0000C948F010C948F010C948F010C948F0180
:1000C0000C948F010C948F010C948F010C948F0170
:1000D0000C948F010C948F010C948F010C948F0160
:1000E0000C948F010C94FA060C9447030C94400670
:1000F0000C9441070C94F0060C94B0050C94740217
:100100000C941E070C947C060C9414030C94BE01F2
:100110000C942F030C942B030C94DC060C945507C1
:100120000C94CD010C94D7060C944B030C94CC0585
:100130000C94D2060C9427020C94EF010C94F50257
:100140000C9433030C9441030C945E060C945D05EF
:100150000C94E9050C94E6060C94FA020C947107D1
:100160000C940C030C9406060C9437070C94910124
:100170000C9421030C9490050C940A070C941B0317
:100180000C9410030C9423060C945F070C943D030D
:100190000C94E1010C9418030C9439030C94690736
:1001A0000C9402070C9425030C9428070C944B071D
:1001B0000C94140700002100240027002A002D00C1
:1001C0003000330001010000040107010A010000B2
:1001D0002200250028002B002E00310034000201EF
:1001E0000000050108010B010505050507050808C4
:1001F0000808020202020A0A0808040404040101B1
:1002000001010101010103030303030303030407C5
:1002100007070C0C0C0C0C0C0C0C0202020206065C
:100220000606060606060B0B0B0B0B0B0B0B01024F
:1002300010202008081020401020408002010201F8
:1002400008040201010204081020408080402010B0
:100250000804020180040201804020100804020109
:100260000804020101020408102040800102040871
:100270001020408000000A0B02090C0D0E08070335
:100280000401000000000000000000000000000069
:10029000000000000000000000000000000000005E
:1002A000121110000000000000000000000000001B
:1002B00000000000000000000000710711241FBEB4
:1002C000CFEFD1E2DEBFCDBF00E00CBF12E0A0E077
:1002D000B2E0E0E5FFE000E00BBF02C007900D9246
:1002E000A431B107D9F722E0A4E1B2E001C01D9228
:1002F000AF3BB207E1F711E0CEE5D1E000E006C088
:1003000021970109802FFE010E949E07CD35D1075C
:1003100080E00807A9F70E942C040C94A6070C940F
:100320000000AF92BF92CF92DF92EF92FF920F93B5
:100330001F93CF93DF936C017B018B01040F151F7B
:10034000EB015E01AE18BF08C017D10759F06991E3
:10035000D601ED91FC910190F081E02DC601199537
:10036000892B79F7C501DF91CF911F910F91FF90F4
:10037000EF90DF90CF90BF90AF900895FC01538D28
:10038000448D252F30E0842F90E0821B930B54176F
:1003900010F0CF96089501970895FC01918D828DFC
:1003A000981761F0A28DAE0FBF2FB11D5D968C9195
:1003B000928D9F5F9F73928F90E008958FEF9FEFD4
:1003C0000895FC01918D828D981731F0828DE80F90
:1003D000F11D858D90E008958FEF9FEF0895FC014A
:1003E000918D228D892F90E0805C9F4F821B910917
:1003F0008F739927089589E192E00E94EF0121E02F
:10040000892B09F420E0822F0895FC01A48DA80F08
:10041000B92FB11DA35ABF4F2C91848D90E0019646
:100420008F739927848FA689B7892C93A089B18966
:100430008C91837080648C93938D848D981306C007
:100440000288F389E02D80818F7D80830895EF926B
:10045000FF920F931F93CF93DF93EC0181E0888F7E
:100460009B8D8C8D98131AC0E889F989808185FF4E
:1004700015C09FB7F894EE89FF896083E889F989F0
:1004800080818370806480839FBF81E090E0DF91F2
:10049000CF911F910F91FF90EF900895F62E0B8D45
:1004A00010E00F5F1F4F0F731127E02E8C8D8E1100
:1004B0000CC00FB607FCFACFE889F989808185FF67
:1004C000F5CFCE010E940502F1CFEB8DEC0FFD2F91
:1004D000F11DE35AFF4FF0829FB7F8940B8FEA8922
:1004E000FB8980818062CFCFCF93DF93EC01888D31
:1004F0008823B9F0AA89BB89E889F9898C9185FD9F
:1005000003C0808186FD0DC00FB607FCF7CF8C912C
:1005100085FFF2CF808185FFEDCFCE010E940502DD
:10052000E9CFDF91CF91089580E090E0892B29F009
:100530000E94FB0181110E94000080E090E0892B65
:1005400049F080E090E0892B29F00E9400008111A1
:100550000E94000080E090E0892B49F080E090E06C
:10056000892B29F00E94000081110E94000080E088
:1005700090E0892B49F080E090E0892B29F00E94DF
:10058000000081110C9400000895282F30E0F9013B
:10059000EC58FD4F9491F901E25DFD4F44912851D3
:1005A0003E4FF9012491222309F435C0992311F11A
:1005B00091509231F8F4E92FF0E08827ED51FD4F8A
:1005C0008F4F0C949E0714031803F5020C031003BD
:1005D000FA021B03210325032B032F0333033903E3
:1005E0003D03FA02410347034B03809180008F775C
:1005F00080938000E22FF0E0EE0FFF1FE253FE4FEA
:10060000A591B4918FB7F894EC91611148C04095D1
:100610004E234C938FBF0895809180008F7DE8CF4B
:1006200080918000877FE4CF84B58F7784BDE2CF4F
:1006300084B58F7DFBCF8091B0008F778093B00021
:10064000D9CF8091B0008F7DF9CF809190008F77C6
:1006500080939000CFCF809190008F7DF9CF8091D3
:100660009000877FF5CF8091A0008F778093A000C6
:10067000C1CF8091A0008F7DF9CF8091A000877FAE
:10068000F5CF809120018F7780932001B3CF8091A7
:1006900020018F7DF9CF80912001877FF5CF4E2BF0
:1006A000B8CFCF93DF9390E0FC01E25DFD4F249142
:1006B00088519E4FFC0184918823D1F090E0880FEF
:1006C000991FFC01EC54FE4FA591B491FC01E2533B
:1006D000FE4FC591D49161110EC09FB7F8948C91D3
:1006E000E22FE0958E238C932881E223E8839FBF3D
:1006F000DF91CF9108958FB7F894EC91E22BEC93B2
:100700008FBFF6CF1F920F920FB60F9211242F9327
:100710003F938F939F93AF93BF938091BB02909130
:10072000BC02A091BD02B091BE023091BA0223E09A
:10073000230F2D3758F50196A11DB11D2093BA0244
:100740008093BB029093BC02A093BD02B093BE0203
:100750008091B6029091B702A091B802B091B9020F
:100760000196A11DB11D8093B6029093B702A0938C
:10077000B802B093B902BF91AF919F918F913F9111
:100780002F910F900FBE0F901F90189526E8230F02
:100790000296A11DB11DD2CF1F920F920FB60F92DC
:1007A00011240BB60F922F933F934F935F936F9348
:1007B0007F938F939F93AF93BF93EF93FF9389E1C1
:1007C00092E00E940502FF91EF91BF91AF919F913E
:1007D0008F917F916F915F914F913F912F910F90EA
:1007E0000BBE0F900FBE0F901F9018951F920F9287
:1007F0000FB60F9211240BB60F922F938F939F93E6
:10080000EF93FF93E0912902F0912A028081E09119
:100810002F02F091300282FD1DC090818091320242
:100820008F5F8F7320913302821741F0E091320283
:10083000F0E0E75EFD4F958F80933202FF91EF91DC
:100840009F918F912F910F900BBE0F900FBE0F9025
:100850001F9018958081F2CF789484B5826084BD12
:1008600084B5816084BD85B5826085BD85B58160B4
:1008700085BD80916E00816080936E001092810032
:1008800080918100826080938100809181008160ED
:1008900080938100809180008160809380008091AE
:1008A000B10084608093B1008091B000816080933A
:1008B000B0008091910082608093910080919100BE
:1008C000816080939100809190008160809390007E
:1008D0008091A10082608093A1008091A10081603D
:1008E0008093A1008091A00081608093A0008091FE
:1008F0002101826080932101809121018160809398
:1009000021018091200181608093200180917A00F3
:10091000846080937A0080917A00826080937A006C
:1009200080917A00816080937A0080917A0080685B
:1009300080937A001092C10061E082E00E9451032E
:1009400061E083E00E94510361E084E00E94510372
:1009500061E087E00E94510361E088E00E9451035A
:1009600060E08AE00E94510361E08DE00E94510343
:10097000E0912902F0912A0282E08083E091250231
:10098000F09126021082E0912702F09128028FEC6C
:10099000808310923102E0912D02F0912E0286E0C8
:1009A0008083E0912B02F0912C0280818061808312
:1009B000E0912B02F0912C02808188608083E0918D
:1009C0002B02F0912C02808180688083E0912B02C1
:1009D000F0912C0280818F7D808361E082E00E9413
:1009E000C50261E088E00E94C50209E712E0EE243A
:1009F000E394F12C89E192E00E94EF0118161906A8
:100A00000CF06CC289E192E00E94CD01C82F809366
:100A1000180261E08DE00E94C502C93681F5C091DF
:100A20001602D091170260E0C0FD15C082E00E945E
:100A3000C50260E088E00E94C50261E087E00E9494
:100A4000C50261E084E00E94C5022196D09317029E
:100A5000C0931602CFCF87E00E94C50260E084E019
:100A60000E94C50261E082E00E94C50261E088E068
:100A70000E94C5021092170210921602BBCF20915D
:100A8000000230910102E0EDEC0FEA3008F50E2E85
:100A9000000CFF0BA9014F5F5F4F8827ED5AFA4FFB
:100AA0008F4F0C949E075D059005B005CC05E905B8
:100AB0000606230640065E067C062130310521F439
:100AC00010921502109214025093010240930002FA
:100AD0008091000290910102049709F08BCF89E187
:100AE00092E00E94EF01181619060CF023C189E16B
:100AF00092E00E94CD0180931802803781F7F09236
:100B00000102E0920002109215021092140261E0BC
:100B100085E00E94510360E085E00E94C5026ACF33
:100B20002130310559F480911402909115028C59AD
:100B30009F4F9093150280931402C6CF80911402A8
:100B4000909115020A962230310599F38091140292
:100B50009091150201962330310509F0B5CFE9CF08
:100B60002130310539F48091140290911502885397
:100B70009F4FDFCF8091140290911502449622304E
:100B80003105B9F28091140290911502029623303A
:100B9000310509F099CFCDCF2130310539F480915D
:100BA000140290911502845D9E4FC3CF8091140270
:100BB000909115024E962230310509F4BACF8091FA
:100BC00014029091150203962330310509F07CCF71
:100BD000B0CF2130310539F4809114029091150283
:100BE00080579E4FA6CF809114029091150288964F
:100BF0002230310509F49DCF8091140290911502A5
:100C000004962330310509F05FCF93CF21303105B1
:100C100039F480911402909115028C509E4F89CF27
:100C20008091140290911502C2962230310509F488
:100C300080CF8091140290911502059623303105E2
:100C400009F042CF76CF2130310539F4809114027A
:100C500090911502885A9D4F6CCF8091140290910B
:100C60001502CC962230310509F463CF809114022D
:100C70009091150206962330310509F025CF59CF02
:100C80002130310539F48091140290911502845479
:100C90009D4F4FCF2230310539F48091140290914D
:100CA00015028A5B9F4F45CF8091140290911502E7
:100CB00007962330310509F007CF3BCF21303105AE
:100CC00039F48091140290911502805E9C4F31CFCF
:100CD0002230310539F48091140290911502805B25
:100CE0009F4F27CF809114029091150208962330D0
:100CF000310509F0E9CE1DCF2130310539F480915D
:100D00001402909115028C579C4F13CF223031055D
:100D100039F48091140290911502865A9F4F09CFA1
:100D20002330310509F0D0CE809114029091150244
:100D30000996FFCE60E08DE00E94C502C0911402CA
:100D4000D091150261E085E00E945103209729F4BB
:100D500060E085E00E94C502C2CECF3FD10511F40C
:100D600061E0F7CFF8018491EFEFE80FE23108F08E
:100D7000B0C0F0E08827E054F94F8F4F0C949E07E5
:100D8000D206D706DC06E606F0066907FA06020771
:100D90000A0714071E0728073707410769074B078B
:100DA00055075F0784B5806884BDC7BD98CE84B5FC
:100DB000806284BDC8BD93CE80918000806880939E
:100DC0008000D0938900C093880089CE80918000F4
:100DD000806280938000D0938B00C0938A007FCE86
:100DE00080918000886080938000D0938D00C093B4
:100DF0008C0075CE8091B00080688093B000C09365
:100E0000B3006DCE8091B00080628093B000C0933B
:100E1000B40065CE80919000806880939000D0935C
:100E20009900C09398005BCE80919000806280937F
:100E30009000D0939B00C0939A0051CE8091900077
:100E4000886080939000D0939D00C0939C0047CE13
:100E50008091A00080688093A0008091A0008F7B8B
:100E60008093A000D093A900C093A80038CE8091B1
:100E7000A00080628093A000D093AB00C093AA0032
:100E80002ECE8091A00088608093A000D093AD000A
:100E9000C093AC0024CE8091200180688093200113
:100EA000D0932901C09328011ACE8091200180623D
:100EB00080932001D0932B01C0932A0110CE809102
:100EC0002001886080932001D0932D01C0932C01D4
:100ED00006CEC038D1050CF043CF3ACF0E94940221
:100EE00089CDE9E1F2E01382128288EE93E0A0E07E
:100EF000B0E084839583A683B78386E092E09183F4
:100F0000808385EC90E09587848784EC90E09787D8
:100F1000868780EC90E0918B808B81EC90E0938BC6
:100F2000828B82EC90E0958B848B86EC90E0978BA3
:100F3000868B118E128E138E148E0895EE0FFF1F66
:100F4000881F8BBF0790F691E02D1994F894FFCF7E
:100F500001000000000027029101BE017402EF01B0
:040F6000CD01E101DD
:00000001FF
