:100000000C9462000C948A000C948A000C948A0070
:100010000C948A000C948A000C948A000C948A0038
:100020000C948A000C948A000C948A000C948A0028
:100030000C948A000C948A000C948A000C948A0018
:100040000C94D4020C948A000C94A2020C947C02AE
:100050000C948A000C948A000C948A000C948A00F8
:100060000C948A000C948A000000000024002700F1
:100070002A0000000000250028002B0000000000DE
:1000800023002600290004040404040404040202DA
:100090000202020203030303030301020408102007
:1000A0004080010204081020010204081020000012
:1000B0000008000201000003040700000000000027
:1000C0000000B60511241FBECFEFD8E0DEBFCDBFC4
:1000D00011E0A0E0B1E0E6EDFBE002C005900D927A
:1000E000A431B107D9F721E0A4E1B1E001C01D922C
:1000F000AE3BB207E1F710E0C2E6D0E004C02197C2
:10010000FE010E94E305C136D107C9F70E941E0314
:100110000C94E9050C940000AF92BF92CF92DF924D
:10012000EF92FF920F931F93CF93DF936C017B01AC
:100130008B01040F151FEB015E01AE18BF08C0173D
:10014000D10759F06991D601ED91FC910190F081B0
:10015000E02DC6010995892B79F7C501DF91CF9173
:100160001F910F91FF90EF90DF90CF90BF90AF90D5
:100170000895FC01538D448D252F30E0842F90E0AD
:10018000821B930B541710F0CF9608950197089592
:10019000FC01918D828D981761F0A28DAE0FBF2F5B
:1001A000B11D5D968C91928D9F5F9F73928F90E0B1
:1001B00008958FEF9FEF0895FC01918D828D981720
:1001C00031F0828DE80FF11D858D90E008958FEF5D
:1001D0009FEF0895FC01918D228D892F90E0805C26
:1001E0009F4F821B91098F739927089581E291E0B7
:1001F0000E94EA0021E0892B09F420E0822F089573
:1002000080E090E0892B29F00E94F60081110C9487
:1002100000000895FC01A48DA80FB92FB11DA35AA9
:10022000BF4F2C91848D90E001968F739927848F16
:10023000A689B7892C93A089B1898C918370806439
:100240008C93938D848D981306C00288F389E02DDA
:1002500080818F7D80830895EF92FF920F931F938B
:10026000CF93DF93EC0181E0888F9B8D8C8D981369
:100270001AC0E889F989808185FF15C09FB7F89475
:10028000EE89FF896083E889F989808183708064C1
:1002900080839FBF81E090E0DF91CF911F910F910C
:1002A000FF90EF900895F62E0B8D10E00F5F1F4F1B
:1002B0000F731127E02E8C8D8E110CC00FB607FC2A
:1002C000FACFE889F989808185FFF5CFCE010E94B8
:1002D0000A01F1CFEB8DEC0FFD2FF11DE35AFF4F1B
:1002E000F0829FB7F8940B8FEA89FB898081806246
:1002F000CFCFCF93DF93EC01888D8823B9F0AA8903
:10030000BB89E889F9898C9185FD03C0808186FDD0
:100310000DC00FB607FCF7CF8C9185FFF2CF80811F
:1003200085FFEDCFCE010E940A01E9CFDF91CF9189
:100330000895833081F028F4813099F08230A9F05B
:1003400008958730A9F08830C9F08430B1F48091E5
:1003500080008F7D03C0809180008F778093800024
:10036000089584B58F7784BD089584B58F7DFBCFC4
:100370008091B0008F778093B00008958091B00095
:100380008F7DF9CF1F93CF93DF93282F30E0F901B2
:10039000E255FF4F8491F901E656FF4FD491F901E0
:1003A000EA57FF4FC491CC23A9F0162F81110E9468
:1003B0009901EC2FF0E0EE0FFF1FEE58FF4FA591D3
:1003C000B4918FB7F894EC91111108C0D095DE2349
:1003D000DC938FBFDF91CF911F910895DE2BF8CF73
:1003E000CF93DF9390E0FC01E656FF4F24918A57AC
:1003F0009F4FFC0184918823D1F090E0880F991FD2
:10040000FC01E859FF4FA591B491FC01EE58FF4F54
:10041000C591D49161110EC09FB7F8948C91E22FD1
:10042000E0958E238C932881E223E8839FBFDF91A0
:10043000CF9108958FB7F894EC91E22BEC938FBF96
:10044000F6CF3FB7F8948091190190911A01A091CD
:100450001B01B0911C0126B5A89B05C02F3F19F0C8
:100460000196A11DB11D3FBFBA2FA92F982F882734
:10047000BC01CD01620F711D811D911D42E0660F0F
:10048000771F881F991F4A95D1F708958F929F92E1
:10049000AF92BF92CF92DF92EF92FF920E94210221
:1004A0004B015C0184EFC82EDD24D394E12CF12CA8
:1004B0000E942102681979098A099B09683E7340E4
:1004C00081059105A8F321E0C21AD108E108F108DD
:1004D00088EE880E83E0981EA11CB11CC114D104C3
:1004E000E104F10429F7FF90EF90DF90CF90BF90E7
:1004F000AF909F908F9008951F920F920FB60F921A
:1005000011242F933F934F935F936F937F938F9318
:100510009F93AF93BF93EF93FF9381E291E00E948B
:100520000A01FF91EF91BF91AF919F918F917F91C0
:100530006F915F914F913F912F910F900FBE0F9050
:100540001F9018951F920F920FB60F9211242F93A0
:100550008F939F93EF93FF93E0913101F0913201DC
:100560008081E0913701F091380182FD1BC09081BC
:1005700080913A018F5F8F7320913B01821741F088
:10058000E0913A01F0E0EF5DFE4F958F80933A01E4
:10059000FF91EF919F918F912F910F900FBE0F9030
:1005A0001F9018958081F4CF1F920F920FB60F9273
:1005B00011242F933F938F939F93AF93BF93809179
:1005C000150190911601A0911701B0911801309179
:1005D000140123E0230F2D3758F50196A11DB11DFD
:1005E000209314018093150190931601A093170195
:1005F000B09318018091190190911A01A0911B01EB
:10060000B0911C010196A11DB11D80931901909319
:100610001A01A0931B01B0931C01BF91AF919F9150
:100620008F913F912F910F900FBE0F901F901895B3
:1006300026E8230F0296A11DB11DD2CF789484B570
:10064000826084BD84B5816084BD85B5826085BDCE
:1006500085B5816085BD80916E00816080936E005C
:10066000109281008091810082608093810080914E
:1006700081008160809381008091800081608093FF
:1006800080008091B10084608093B1008091B000BF
:1006900081608093B00080917A00846080937A00BA
:1006A00080917A00826080937A0080917A008160E4
:1006B00080937A0080917A00806880937A0010920B
:1006C000C10061E082E00E94F00161E083E00E94ED
:1006D000F00161E084E00E94F00161E086E00E94A8
:1006E000F00160E08DE00E94F001E0913101F091B5
:1006F000320182E08083E0912D01F0912E01108281
:10070000E0912F01F09130018FEC8083109239013C
:10071000E0913501F091360186E08083E09133016C
:10072000F0913401808180618083E0913301F09108
:100730003401808188608083E0913301F09134013D
:10074000808180688083E0913301F0913401808161
:100750008F7D808361E082E00E94C20161E086E0DB
:100760000E94C2012CE2222E3324339434E8432E1B
:1007700033E0532E40E2642E43E0742E0CEB12E083
:1007800058E5E52E52E0F52E64EFC62EDD24D39415
:1007900070E9A72EBB24B394C8ECD0E094E6892E70
:1007A000912C81E291E00E94EA00181619060CF0E3
:1007B0002FC181E291E00E94C80020910001309198
:1007C0000101E0EDE80FEA30F8F40E2E000CFF0B0B
:1007D000E151FC4FA9014F5F5F4F0C94E305F90312
:1007E00012042F04490463047E049904B404D00461
:1007F000EC042130310521F41092200110921F01E8
:1008000050930101409300018091000190910101FA
:10081000049709F0C6CF81E090E0909301018093A6
:100820000001BACF2130310529F490922001809245
:100830001F01E6CF80911F01909120010A9622307E
:10084000310541F080911F019091200101962330E4
:100850003105B1F69093200180931F01D1CF213053
:10086000310529F4D0932001C0931F01C9CF809195
:100870001F019091200144962230310559F3809157
:100880001F019091200102962330310509F0B8CF65
:10089000E1CF2130310529F43092200120921F014F
:1008A000AFCF80911F01909120014E9622303105EB
:1008B00089F280911F019091200103962330310528
:1008C00009F09ECFC7CF2130310529F4B092200125
:1008D000A0921F0195CF80911F01909120018896D1
:1008E0002230310509F4B6CF80911F01909120018B
:1008F00004962330310509F083CFACCF2130310588
:1009000029F4D0922001C0921F017ACF80911F015B
:1009100090912001C2962230310509F49BCF80913D
:100920001F019091200105962330310509F068CF11
:1009300091CF2130310529F4F0922001E0921F017E
:100940005FCF80911F0190912001CC96223031051C
:1009500009F480CF80911F019091200106962330E9
:10096000310509F04DCF76CF2130310529F41093B0
:10097000200100931F0144CF2230310539F48091CA
:100980001F01909120018A5B9F4F64CF80911F01CE
:100990009091200107962330310509F031CF5ACFCD
:1009A0002130310529F47092200160921F0128CF77
:1009B0002230310539F480911F0190912001805B34
:1009C0009F4F48CF80911F019091200108962330BE
:1009D000310509F015CF3ECF2130310529F4509271
:1009E000200140921F010CCF2230310539F4809153
:1009F0001F0190912001865A9F4F2CCF2330310543
:100A000009F0FECE80911F0190912001099622CF1E
:100A1000EBEBF0E08491E7EAF0E0C491E3E9F0E089
:100A2000D491DD2359F181110E949901ED2FF0E05D
:100A3000EE0FFF1FE458FF4FA591B491EC91CE2328
:100A4000E9F0C0911D01D0911E0160E0C0FD31C0F0
:100A500082E00E94C20160E086E00E94C2010E9422
:100A6000460261E083E00E94C20161E084E00E94EE
:100A7000C2012196D0931E01C0931D01C0911F0198
:100A8000D091200161E085E00E94F001209739F5C6
:100A900060E085E00E94C20180E090E0892B09F4CB
:100AA0007BCE0E94F600882309F476CE0E940000D7
:100AB00073CE83E00E94C20160E084E00E94C20124
:100AC0000E94460261E082E00E94C20161E086E08D
:100AD0000E94C20110921E0110921D01CFCFCF3F84
:100AE000D10511F461E0D5CFE3EBF0E0E491E33020
:100AF00019F140F4E130B1F0E230C9F0C038D1056D
:100B00008CF7C6CFE73011F1E83041F1E430B1F7AE
:100B100080918000806280938000D0938B00C0938E
:100B20008A00BACF84B5806884BDC7BDB5CF84B50F
:100B3000806284BDC8BDB0CF809180008068809302
:100B40008000D0938900C0938800A6CF8091B00028
:100B500080688093B000C093B3009ECF8091B000B6
:100B600080628093B000C093B40096CFE1E2F1E0E0
:100B70001382128288EE93E0A0E0B0E08483958334
:100B8000A683B78386E091E09183808385EC90E033
:100B90009587848784EC90E09787868780EC90E047
:100BA000918B808B81EC90E0938B828B82EC90E038
:100BB000958B848B86EC90E0978B868B118E128EB2
:100BC000138E148E0895EE0FFF1F0590F491E02D03
:060BD0000994F894FFCF28
:100BD6000100000000002C018C00B9007901EA0038
:040BE600C800DC0067
:00000001FF
