:020000040000FA
:100000000C945D000C9485000C9485000C94850084
:100010000C9485000C9485000C9485000C9485004C
:100020000C9485000C9485000C9485000C9485003C
:100030000C9485000C9485000C9485000C9485002C
:100040000C94BB020C9485000C9489020C946302FE
:100050000C9485000C9485000C9485000C9485000C
:100060000C9485000C94850000000008000201003B
:100070000003040700000000000000000000000072
:10008000250028002B0000000000240027002A0083
:10009000040404040404040402020202020203032E
:1000A0000303030301020408102040800102040836
:1000B0001020010204081020480411241FBECFEFB5
:1000C000D8E0DEBFCDBF11E0A0E0B1E0EAEFF8E09C
:1000D00002C005900D92A231B107D9F722E0A2E14A
:1000E000B1E001C01D92AD33B207E1F710E0CDE5FC
:1000F000D0E004C02197FE010E947504CC35D107E1
:10010000C9F70E9405030C947B040C940000AF9285
:10011000BF92CF92DF92EF92FF920F931F93CF93F4
:10012000DF936C017B018B01040F151FEB015E0156
:10013000AE18BF08C017D10759F06991D601ED91EB
:10014000FC910190F081E02DC6010995892B79F78A
:10015000C501DF91CF911F910F91FF90EF90DF903C
:10016000CF90BF90AF900895FC01538D448D252F03
:1001700030E0842F90E0821B930B541710F0CF9641
:10018000089501970895FC01918D828D981761F073
:10019000A28DAE0FBF2FB11D5D968C91928D9F5F8A
:1001A0009F73928F90E008958FEF9FEF0895FC0169
:1001B000918D828D981731F0828DE80FF11D858D1C
:1001C00090E008958FEF9FEF0895FC01918D228DAF
:1001D000892F90E0805C9F4F821B91098F73992734
:1001E000089580EA91E00E94E50021E0892B09F45E
:1001F00020E0822F089580E090E0892B29F00E9472
:10020000F10081110C9400000895FC01A48DA80F49
:10021000B92FB11DA35ABF4F2C91848D90E0019648
:100220008F739927848FA689B7892C93A089B18968
:100230008C91837080648C93938D848D981306C009
:100240000288F389E02D80818F7D80830895EF926D
:10025000FF920F931F93CF93DF93EC0181E0888F80
:100260009B8D8C8D98131AC0E889F989808185FF50
:1002700015C09FB7F894EE89FF896083E889F989F2
:1002800080818370806480839FBF81E090E0DF91F4
:10029000CF911F910F91FF90EF900895F62E0B8D47
:1002A00010E00F5F1F4F0F731127E02E8C8D8E1102
:1002B0000CC00FB607FCFACFE889F989808185FF69
:1002C000F5CFCE010E940501F1CFEB8DEC0FFD2F94
:1002D000F11DE35AFF4FF0829FB7F8940B8FEA8924
:1002E000FB8980818062CFCFCF93DF93EC01888D33
:1002F0008823B9F0AA89BB89E889F9898C9185FDA1
:1003000003C0808186FD0DC00FB607FCF7CF8C912E
:1003100085FFF2CF808185FFEDCFCE010E940501E0
:10032000E9CFDF91CF91089590E0FC01E859FF4FAC
:100330002491FC01EC55FF4F3491FC01E057FF4F35
:10034000E491EE23C9F0222339F0233001F1A8F41F
:10035000213019F1223029F1F0E0EE0FFF1FE458AF
:10036000FF4FA591B4918FB7F894EC91611126C01D
:1003700030953E233C938FBF08952730A9F0283055
:10038000C9F0243049F7809180008F7D03C08091AF
:1003900080008F7780938000DFCF84B58F7784BD16
:1003A000DBCF84B58F7DFBCF8091B0008F778093BA
:1003B000B000D2CF8091B0008F7DF9CF3E2BDACF45
:1003C0003FB7F8948091170190911801A0911901FD
:1003D000B0911A0126B5A89B05C02F3F19F00196D0
:1003E000A11DB11D3FBFBA2FA92F982F8827BC018F
:1003F000CD01620F711D811D911D42E0660F771FB7
:10040000881F991F4A95D1F708958F929F92AF92B6
:10041000BF92CF92DF92EF92FF924B015C010E945C
:10042000E0016B017C010E94E0016C197D098E09DD
:100430009F09683E734081059105A8F321E0821A67
:100440009108A108B10888EEC80E83E0D81EE11C0F
:10045000F11C81149104A104B10429F7FF90EF90DD
:10046000DF90CF90BF90AF909F908F900895CF93E3
:10047000DF93D82FC62F60E08BE00E9494016C2F91
:100480008AE00E949401C2E06D2F61708C2F0E945F
:100490009401D595CF5FCA30B9F761E08BE00E9437
:1004A000940162E070E080E090E00E94050260E06C
:1004B0008BE00E94940162E070E080E090E0DF91C8
:1004C000CF910C9405021F920F920FB60F92112438
:1004D0002F933F934F935F936F937F938F939F934C
:1004E000AF93BF93EF93FF9380EA91E00E940501E1
:1004F000FF91EF91BF91AF919F918F917F916F91FC
:100500005F914F913F912F910F900FBE0F901F90D1
:1005100018951F920F920FB60F9211242F938F935D
:100520009F93EF93FF93E091B001F091B10180812F
:10053000E091B601F091B70182FD1BC090818091DE
:10054000B9018F5F8F732091BA01821741F0E0915A
:10055000B901F0E0E056FE4F958F8093B901FF910D
:10056000EF919F918F912F910F900FBE0F901F9041
:1005700018958081F4CF1F920F920FB60F9211241D
:100580002F933F938F939F93AF93BF9380911301CA
:1005900090911401A0911501B091160130911201B2
:1005A00023E0230F2D3758F50196A11DB11D20938F
:1005B00012018093130190931401A0931501B0933D
:1005C00016018091170190911801A0911901B09125
:1005D0001A010196A11DB11D809317019093180176
:1005E000A0931901B0931A01BF91AF919F918F9180
:1005F0003F912F910F900FBE0F901F90189526E8F6
:10060000230F0296A11DB11DD2CF789484B58260CC
:1006100084BD84B5816084BD85B5826085BD85B5A6
:10062000816085BD80916E00816080936E00109224
:10063000810080918100826080938100809181009F
:100640008160809381008091800081608093800030
:100650008091B10084608093B1008091B00081608E
:100660008093B00080917A00846080937A008091BA
:100670007A00826080937A0080917A008160809312
:100680007A0080917A00806880937A001092C1008D
:1006900022E030E0F901EC55FF4F4491F901E057B9
:1006A000FF4F8491882399F090E0880F991FFC01F7
:1006B000EA57FF4FA591B491FC01E458FF4F859193
:1006C00094918FB7F894EC91E42BEC938FBF2F5F4C
:1006D0003F4F2C303105F1F664E170E080E090E0AE
:1006E0000E94050260E088E30E94370260E08FE02C
:1006F0000E94370260E081E00E94370260E086E0FD
:100700000E943702E091B001F091B10182E0808354
:10071000E091AC01F091AD011082E091AE01F09159
:10072000AF018FEC80831092B801E091B401F09199
:10073000B50186E08083E091B201F091B301808140
:1007400080618083E091B201F091B3018081886083
:100750008083E091B201F091B30180818068808351
:10076000E091B201F091B30180818F7D80830BE233
:1007700011E0C0E0D0E050E4E52EF12CCC24C3948D
:10078000D12C80EA91E00E94E50018161906CCF5FC
:1007900080EA91E00E94C30020919E0130919F0168
:1007A0008D3009F042C0232BB9F5F0929D01E09203
:1007B0009C01D0929F01C0929E0160E080E80E945F
:1007C00037029BE1A92E91E0B92E61E0F5018191FC
:1007D0005F010E9437020A151B05B9F760E080EC43
:1007E0000E9437028BE5A82E81E0B82E61E0F5016A
:1007F00081915F010E943702FBE6AF16F1E0BF0670
:10080000A9F7209709F4BDCF0E94F100882309F4CD
:10081000B8CF0E940000B5CF10929D0110929C01AC
:1008200010929F0110929E01C8CF46E0220F331F05
:100830004A95E1F7B901605F7F4F40919C0150916B
:100840009D0164177507A9F4F901E55EFE4F41E1CA
:1008500050E0215F3F4F4150510919F09181919330
:10086000FACFF901E55EFE4F808330939D0120931E
:100870009C0120919C0130919D01F901E55EFE4FA4
:1008800080832F5F3F4F30939D0120939C0195CF34
:10089000E0EAF1E01382128288EE93E0A0E0B0E09B
:1008A00084839583A683B78384E091E091838083DA
:1008B00085EC90E09587848784EC90E09787868725
:1008C00080EC90E0918B808B81EC90E0938B828B1D
:1008D00082EC90E0958B848B86EC90E0978B868BF6
:1008E000118E128E138E148E0895EE0FFF1F059039
:1008F000F491E02D0994F894FFCF00000000270147
:0C0900008700B4007401E500C300D700BC
:107E0000112484B714BE81FFF0D085E080938100F7
:107E100082E08093C00088E18093C10086E0809377
:107E2000C20080E18093C4008EE0C9D0259A86E02C
:107E300020E33CEF91E0309385002093840096BBD3
:107E4000B09BFECF1D9AA8958150A9F7CC24DD24C4
:107E500088248394B5E0AB2EA1E19A2EF3E0BF2EE7
:107E6000A2D0813461F49FD0082FAFD0023811F036
:107E7000013811F484E001C083E08DD089C08234E0
:107E800011F484E103C0853419F485E0A6D080C0E4
:107E9000853579F488D0E82EFF2485D0082F10E0AE
:107EA000102F00270E291F29000F111F8ED06801E7
:107EB0006FC0863521F484E090D080E0DECF843638
:107EC00009F040C070D06FD0082F6DD080E0C81688
:107ED00080E7D80618F4F601B7BEE895C0E0D1E017
:107EE00062D089930C17E1F7F0E0CF16F0E7DF06D8
:107EF00018F0F601B7BEE89568D007B600FCFDCFD4
:107F0000A601A0E0B1E02C9130E011968C91119780
:107F100090E0982F8827822B932B1296FA010C0160
:107F200087BEE89511244E5F5F4FF1E0A038BF0790
:107F300051F7F601A7BEE89507B600FCFDCF97BE46
:107F4000E89526C08437B1F42ED02DD0F82E2BD052
:107F50003CD0F601EF2C8F010F5F1F4F84911BD097
:107F6000EA94F801C1F70894C11CD11CFA94CF0C13
:107F7000D11C0EC0853739F428D08EE10CD085E9AC
:107F80000AD08FE07ACF813511F488E018D01DD067
:107F900080E101D065CF982F8091C00085FFFCCF94
:107FA0009093C60008958091C00087FFFCCF809118
:107FB000C00084FD01C0A8958091C6000895E0E648
:107FC000F0E098E1908380830895EDDF803219F02E
:107FD00088E0F5DFFFCF84E1DECF1F93182FE3DFCA
:107FE0001150E9F7F2DF1F91089580E0E8DFEE27F6
:047FF000FF270994CA
:027FFE00040479
:00000001FF
