:100000000C945E000C9486000C9486000C94860080
:100010000C9486000C9486000C9486000C94860048
:100020000C9486000C9486000C9486000C94860038
:100030000C9486000C9486000C9486000C94860028
:100040000C9413030C9486000C94E1020C94BB02F4
:100050000C9486000C9486000C9486000C94860008
:100060000C9486000C948600000000080002010039
:100070000003040700000000000000000000000072
:10008000250028002B0000000000240027002A0083
:10009000040404040404040402020202020203032E
:1000A0000303030301020408102040800102040836
:1000B00010200102040810205D031E0511241FBE3C
:1000C000CFEFD8E0DEBFCDBF22E0ACE5B1E001C0AC
:1000D0001D92A337B207E1F711E0A0E0B1E0E8ED2F
:1000E000FEE002C005900D92AC35B107D9F710E0E3
:1000F000CDE5D0E004C02197FE010E945E05CC351D
:10010000D107C9F70E94D1030C945F070C9400003B
:1001100090E0FC01EC55FF4F249180579F4FFC016C
:100120008491882399F090E0880F991FFC01EA5789
:10013000FF4FA591B491FC01E458FF4F8591949134
:100140008FB7F894EC91E22BEC938FBF0895AF92A8
:10015000BF92CF92DF92EF92FF920F931F93CF93B4
:10016000DF936C017B018B01040F151FEB015E0116
:10017000AE18BF08C017D10759F06991D601ED91AB
:10018000FC910190F081E02DC6010995892B79F74A
:10019000C501DF91CF911F910F91FF90EF90DF90FC
:1001A000CF90BF90AF900895FC01538D448D252FC3
:1001B00030E0842F90E0821B930B541710F0CF9601
:1001C000089501970895FC01918D828D981761F033
:1001D000A28DAE0FBF2FB11D5D968C91928D9F5F4A
:1001E0009F73928F90E008958FEF9FEF0895FC0129
:1001F000918D828D981731F0828DE80FF11D858DDC
:1002000090E008958FEF9FEF0895FC01918D228D6E
:10021000892F90E0805C9F4F821B91098F739927F3
:1002200008958CEC91E00E94050121E0892B09F4EE
:1002300020E0822F089580E090E0892B29F00E9431
:10024000110181110C9400000895FC01A48DA80FE8
:10025000B92FB11DA35ABF4F2C91848D90E0019608
:100260008F739927848FA689B7892C93A089B18928
:100270008C91837080648C93938D848D981306C0C9
:100280000288F389E02D80818F7D80830895EF922D
:10029000FF920F931F93CF93DF93EC0181E0888F40
:1002A0009B8D8C8D98131AC0E889F989808185FF10
:1002B00015C09FB7F894EE89FF896083E889F989B2
:1002C00080818370806480839FBF81E090E0DF91B4
:1002D000CF911F910F91FF90EF900895F62E0B8D07
:1002E00010E00F5F1F4F0F731127E02E8C8D8E11C2
:1002F0000CC00FB607FCFACFE889F989808185FF29
:10030000F5CFCE010E942501F1CFEB8DEC0FFD2F33
:10031000F11DE35AFF4FF0829FB7F8940B8FEA89E3
:10032000FB8980818062CFCFCF93DF93EC01888DF2
:100330008823B9F0AA89BB89E889F9898C9185FD60
:1003400003C0808186FD0DC00FB607FCF7CF8C91EE
:1003500085FFF2CF808185FFEDCFCE010E94250180
:10036000E9CFDF91CF91089590E0FC01E859FF4F6C
:100370002491FC01EC55FF4F3491FC01E057FF4FF5
:10038000E491EE23C9F0222339F0233001F1A8F4DF
:10039000213019F1223029F1F0E0EE0FFF1FE4586F
:1003A000FF4FA591B4918FB7F894EC91611126C0DD
:1003B00030953E233C938FBF08952730A9F0283015
:1003C000C9F0243049F7809180008F7D03C080916F
:1003D00080008F7780938000DFCF84B58F7784BDD6
:1003E000DBCF84B58F7DFBCF8091B0008F7780937A
:1003F000B000D2CF8091B0008F7DF9CF3E2BDACF05
:100400003FB7F8948091610190916201A0916301DE
:10041000B091640126B5A89B05C02F3F19F0019645
:10042000A11DB11D3FBFBA2FA92F982F8827BC014E
:10043000CD01620F711D811D911D42E0660F771F76
:10044000881F991F4A95D1F708958F929F92AF9276
:10045000BF92CF92DF92EF92FF924B015C010E941C
:1004600000026B017C010E9400026C197D098E095B
:100470009F09683E734081059105A8F321E0821A27
:100480009108A108B10888EEC80E83E0D81EE11CCF
:10049000F11C81149104A104B10429F7FF90EF909D
:1004A000DF90CF90BF90AF909F908F900895CF93A3
:1004B000DF93FC0101900020E9F73197AF01481B61
:1004C000590BBC018CEC91E00E94A700EC0142E0CA
:1004D00050E068E171E08CEC91E00E94A7008C0F85
:1004E0009D1FDF91CF910895CF93DF93EC01809111
:1004F000690290916A02009759F020916B02309145
:100500006C022C173D0720F081E0DF91CF91089518
:10051000BE016F5F7F4F0E948906009789F090931C
:100520006A0280936902D0936C02C0936B0220919F
:100530006D0230916E02232B39F7FC011082E4CF5B
:1005400080E0E3CF20916D0230916E02232B39F4CD
:1005500021E0FC018081882361F020E00AC0BC0119
:100560008091690290916A020E944F0721E0892BD5
:10057000A1F7822F08951F920F920FB60F921124A8
:100580002F933F934F935F936F937F938F939F939B
:10059000AF93BF93EF93FF938CEC91E00E94250102
:1005A000FF91EF91BF91AF919F918F917F916F914B
:1005B0005F914F913F912F910F900FBE0F901F9021
:1005C00018951F920F920FB60F9211242F938F93AD
:1005D0009F93EF93FF93E091DC01F091DD01808127
:1005E000E091E201F091E30182FD1BC090818091D6
:1005F000E5018F5F8F732091E601821741F0E09152
:10060000E501F0E0E453FE4F958F8093E501FF9103
:10061000EF919F918F912F910F900FBE0F901F9090
:1006200018958081F4CF1F920F920FB60F9211246C
:100630002F933F938F939F93AF93BF9380915D01CF
:1006400090915E01A0915F01B091600130915C01D9
:1006500023E0230F2D3758F50196A11DB11D2093DE
:100660005C0180935D0190935E01A0935F01B09364
:1006700060018091610190916201A0916301B0914C
:1006800064010196A11DB11D8093610190936201E7
:10069000A0936301B0936401BF91AF919F918F913B
:1006A0003F912F910F900FBE0F901F90189526E845
:1006B000230F0296A11DB11DD2CF1092CF0110922F
:1006C000CE0188EE93E0A0E0B0E08093D00190935B
:1006D000D101A093D201B093D3018AE091E090932D
:1006E000CD018093CC0185EC90E09093D90180936B
:1006F000D80184EC90E09093DB018093DA0180ECE8
:1007000090E09093DD018093DC0181EC90E0909388
:10071000DF018093DE0182EC90E09093E101809311
:10072000E00186EC90E09093E3018093E201109267
:10073000E5011092E6011092E7011092E801109293
:100740006A021092690210926C0210926B0210926F
:100750006E0210926D0290E080E00E94740220917F
:10076000690230916A02811113C02115310519F017
:10077000C9010E94000610926A021092690210924A
:100780006E0210926D0210926C0210926B0208952C
:1007900010926E0210926D026AE171E0C9010C9430
:1007A0005807789484B5826084BD84B5816084BD27
:1007B00085B5826085BD85B5816085BD80916E00FF
:1007C000816080936E001092810080918100826030
:1007D000809381008091810081608093810080916D
:1007E00080008160809380008091B100846080935C
:1007F000B1008091B00081608093B00080917A0058
:10080000846080937A0080917A00826080937A007D
:1008100080917A00816080937A0080917A0080686C
:1008200080937A001092C100E091DC01F091DD012B
:1008300082E08083E091D801F091D9011082E091AB
:10084000DA01F091DB018FEC80831092E401E091FA
:10085000E001F091E10186E08083E091DE01F0911A
:10086000DF01808180618083E091DE01F091DF0112
:10087000808188608083E091DE01F091DF018081DA
:1008800080688083E091DE01F091DF0180818F7DBF
:10089000808384E00E94880083E00E94880000E05A
:1008A00010E0FF24F3948CEC91E00E9405011816EF
:1008B0001906ECF48CEC91E00E94E3002091CA014F
:1008C0003091CB01F901EA59FE4F80838D3041F41C
:1008D00010821092CB011092CA01F0926501E3CF11
:1008E0002F5F3F4F3093CB012093CA01DCCF809123
:1008F0006501882309F486C086E691E00E945702CC
:1009000010926501C6E6D1E009900020E9F7C756CC
:10091000D140CE010E9474022091690230916A0296
:10092000811182C02115310519F0C9010E9400060C
:1009300010926A021092690210926E0210926D0279
:1009400010926C0210926B028BE191E00E94A20265
:10095000882341F061E084E00E94B40181E291E0EB
:100960000E9457028DE291E00E94A202882341F08A
:1009700060E084E00E94B40186E391E00E945702A7
:1009800085E491E00E94A202882321F061E083E0E7
:100990000E94B4018BE491E00E94A202882321F01E
:1009A00060E083E00E94B40184E591E00E94A2022D
:1009B000882341F161E084E00E94B40164EF71E0BA
:1009C00080E090E00E94250260E084E00E94B40193
:1009D00064EF71E080E090E00E94250261E083E036
:1009E0000E94B40164EF71E080E090E00E94250273
:1009F00060E083E00E94B40164EF71E080E090E089
:100A00000E94250264E670E080E090E00E942502EA
:100A10000115110509F447CF0E941101882309F43B
:100A200042CF0E9400003FCFD0936E02C0936D0270
:100A300066E671E0C9010E94580786CF809169027D
:100A400090916A02009711F00C94000608952F927D
:100A50003F924F925F926F927F928F929F92AF924E
:100A6000BF92CF92DF92EF92FF920F931F93CF939B
:100A7000DF93CDB7DEB7CA1BDB0B0FB6F894DEBF32
:100A80000FBECDBF09942A88398848885F846E8458
:100A90007D848C849B84AA84B984C884DF80EE80A2
:100AA000FD800C811B81AA81B981CE0FD11D0FB6AB
:100AB000F894DEBF0FBECDBFED010895EE0FFF1F0E
:100AC0000590F491E02D09940F931F93CF93DF933A
:100AD0008230910510F482E090E0E0917102F09193
:100AE000720230E020E0B0E0A0E0309799F42115E8
:100AF000310509F44AC0281B390B24303105D8F5DB
:100B00008A819B816115710589F1FB019383828341
:100B1000FE0111C04081518102811381481759079C
:100B2000E0F04817590799F4109761F012960C936A
:100B3000129713961C933296CF01DF91CF911F919C
:100B40000F9108950093710210937202F4CF211552
:100B5000310551F04217530738F0A901DB019A0122
:100B6000BD01DF01F801C1CFEF01F9CF909372020F
:100B700080937102CDCFFE01E20FF31F8193919319
:100B80002250310939832883D7CF20916F023091C9
:100B90007002232B41F42091020130910301309324
:100BA000700220936F022091000130910101211504
:100BB000310541F42DB73EB7409104015091050134
:100BC000241B350BE0916F02F0917002E217F307DE
:100BD000A0F42E1B3F0B2817390778F0AC014E5FAD
:100BE0005F4F2417350748F04E0F5F1F5093700278
:100BF00040936F02819391939FCFF0E0E0E09CCF10
:100C0000CF93DF930097E9F0FC01329713821282B1
:100C1000A0917102B0917202ED0130E020E01097D6
:100C2000A1F420813181820F931F20916F023091B6
:100C300070022817390709F061C0F0937002E09341
:100C40006F02DF91CF910895EA01CE17DF07E8F533
:100C50004A815B819E0141155105B1F7E901FB8392
:100C6000EA8349915991C40FD51FEC17FD0761F430
:100C7000808191810296840F951FE9019983888371
:100C8000828193819B838A83F0E0E0E012968D91CC
:100C90009C9113970097B9F52D913C911197CD0137
:100CA0000296820F931F20916F02309170022817D5
:100CB000390739F6309751F510927202109271028D
:100CC000B0937002A0936F02BCCFD383C2834081E4
:100CD0005181840F951FC817D90761F44E5F5F4F8C
:100CE00088819981480F591F518340838A819B8154
:100CF000938382832115310509F0B0CFF0937202FE
:100D0000E09371029ECFFD01DC01C0CF13821282FD
:100D1000D7CFB0E0A0E0EFE8F6E00C9429058C0115
:100D2000009751F4CB010E9464058C01C801CDB736
:100D3000DEB7E0E10C944505FC01E60FF71F9C01CE
:100D400022503109E217F30708F49DC0D901CD9173
:100D5000DC911197C617D70798F0C530D10530F34D
:100D6000CE0104978617970708F3C61BD70B229767
:100D7000C193D1936D937C93CF010E940006D6CF8F
:100D80005B01AC1ABD0A4C018C0E9D1EA091710234
:100D9000B0917202512C412CF12CE12C109731F5BD
:100DA00080916F02909170028815990509F05CC0DE
:100DB0004616570608F058C0809100019091010135
:100DC000009741F48DB79EB7409104015091050101
:100DD000841B950BE817F90708F055C0F0937002D3
:100DE000E0936F02F90171836083A0CF8D919C9194
:100DF000119712966C90129713967C901397A815E2
:100E0000B90559F56C0142E0C40ED11CCA14DB04CB
:100E100020F1AC014A195B09DA011296159780F0AE
:100E20006282738251834083D9016D937C93E11474
:100E3000F10471F0D7011396FC93EE93129776CFDD
:100E400022968C0F9D1FF90191838083F301EFCFD0
:100E5000F0937202E093710269CF4816590608F4C4
:100E60002C017D01D3019ACFCB010E9464057C0146
:100E7000009749F0AE01B8010E944607C8010E94E0
:100E80000006870153CF10E000E050CFFB01DC01EA
:100E900002C001900D9241505040D8F70895FB01D7
:100EA000DC018D91019080190110D9F3990B0895FF
:100EB000FB01DC0101900D920020E1F7089510E0A4
:100EC000CDE5D0E004C0FE010E945E052196CE353E
:080ED000D107C9F7F894FFCF28
:100ED800000073028000000000004701A700D40052
:100EE80094010501E300F7000D0A004C69676131C0
:100EF800004C656431204C696761646F0044657318
:100F08006C69676131004C656431204465736C69B4
:100F18006761646F004C69676132004465736C698E
:0C0F2800676132005069736361310000A2
:00000001FF
