:020000040000FA
:100000000C9463000C948B000C948B000C948B006C
:100010000C948B000C948B000C948B000C948B0034
:100020000C948B000C948B000C948B000C948B0024
:100030000C948B000C948B000C948B000C948B0014
:100040000C94DE030C948B000C94AC030C9486038C
:100050000C948B000C948B000C948B000C948B00F4
:100060000C948B000C948B000000000023002600F1
:10007000290000000008000201000003040700003E
:1000800000000000000000000000250028002B00F8
:1000900000000000240027002A00040404040404D3
:1000A0000404020202020202030303030303010227
:1000B00004081020408001020408102001020408F6
:1000C00010202804090611241FBECFEFD8E0DEBFA0
:1000D000CDBF22E0A6E2B1E001C01D92A735B20774
:1000E000E1F711E0A0E0B1E0ECE9F0E102C0059039
:1000F0000D92A632B107D9F710E0C2E6D0E004C0F5
:100100002197FE010E944906C136D107C9F70E9416
:10011000CD040C9441080C94000090E0FC01E255E1
:10012000FF4F249186569F4FFC018491882399F0BC
:1001300090E0880F991FFC01E057FF4FA591B49103
:10014000FC01EA57FF4F859194918FB7F894EC9199
:10015000E22BEC938FBF0895AF92BF92CF92DF92C4
:10016000EF92FF920F931F93CF93DF936C017B016C
:100170008B01040F151FEB015E01AE18BF08C017FD
:10018000D10759F06991D601ED91FC910190F08170
:10019000E02DC6010995892B79F7C501DF91CF9133
:1001A0001F910F91FF90EF90DF90CF90BF90AF9095
:1001B0000895FC01538D448D252F30E0842F90E06D
:1001C000821B930B541710F0CF9608950197089552
:1001D000FC01918D828D981761F0A28DAE0FBF2F1B
:1001E000B11D5D968C91928D9F5F9F73928F90E071
:1001F00008958FEF9FEF0895FC01918D828D9817E0
:1002000031F0828DE80FF11D858D90E008958FEF1C
:100210009FEF0895FC01918D228D892F90E0805CE5
:100220009F4F821B91098F739927089588E991E068
:100230000E940A0121E0892B09F420E0822F089511
:1002400080E090E0892B29F00E94160181110C9426
:1002500000000895FC01A48DA80FB92FB11DA35A69
:10026000BF4F2C91848D90E001968F739927848FD6
:10027000A689B7892C93A089B1898C9183708064F9
:100280008C93938D848D981306C00288F389E02D9A
:1002900080818F7D80830895EF92FF920F931F934B
:1002A000CF93DF93EC0181E0888F9B8D8C8D981329
:1002B0001AC0E889F989808185FF15C09FB7F89435
:1002C000EE89FF896083E889F98980818370806481
:1002D00080839FBF81E090E0DF91CF911F910F91CC
:1002E000FF90EF900895F62E0B8D10E00F5F1F4FDB
:1002F0000F731127E02E8C8D8E110CC00FB607FCEA
:10030000FACFE889F989808185FFF5CFCE010E9477
:100310002A01F1CFEB8DEC0FFD2FF11DE35AFF4FBA
:10032000F0829FB7F8940B8FEA89FB898081806205
:10033000CFCFCF93DF93EC01888D8823B9F0AA89C2
:10034000BB89E889F9898C9185FD03C0808186FD90
:100350000DC00FB607FCF7CF8C9185FFF2CF8081DF
:1003600085FFEDCFCE010E942A01E9CFDF91CF9129
:100370000895833081F028F4813099F08230A9F01B
:1003800008958730A9F08830C9F08430B1F48091A5
:1003900080008F7D03C0809180008F7780938000E4
:1003A000089584B58F7784BD089584B58F7DFBCF84
:1003B0008091B0008F778093B00008958091B00055
:1003C0008F7DF9CF1F93CF93DF93282F30E0F90172
:1003D000EE58FF4F8491F901E255FF4FD491F90196
:1003E000E656FF4FC491CC23A9F0162F81110E942D
:1003F000B901EC2FF0E0EE0FFF1FEA57FF4FA59178
:10040000B4918FB7F894EC91111108C0D095DE2308
:10041000DC938FBFDF91CF911F910895DE2BF8CF32
:10042000089590E080E00895CF93DF93EC0160E0C1
:100430008E810E94E20161E08E810E94E20160E013
:100440008E810E94E2018BE891E00197F1F7DF9144
:10045000CF910895CF92DF92EF92FF920F931F9367
:10046000CF93DF936C017C0187E0E80EF11CD0E0B4
:10047000C0E0062F10E0B8010C2E02C075956795FC
:100480000A94E2F76170F70181917F010E94E20115
:100490002196C430D10579F7C601DF91CF911F9124
:1004A0000F91FF90EF90DF90CF900C941402CF92B9
:1004B000DF92EF92FF920F931F93CF93DF93EC01A4
:1004C000F62E642F8C810E94E2018D818F3F19F0FE
:1004D00060E00E94E2010F2D10E08F8584FF25C0AF
:1004E0006E0187E0C80ED11CF12CE12CB8010E2C56
:1004F00002C0759567950A94E2F76170F6018191E3
:100500006F010E94E201FFEFEF1AFF0A88E0E81690
:10051000F10461F7CE01DF91CF911F910F91FF9010
:10052000EF90DF90CF900C941402B80184E07595A1
:1005300067958A95E1F7CE010E942A026F2DCE01C0
:10054000DF91CF911F910F91FF90EF90DF90CF90AF
:100550000C942A0240E0682F8BE392E00C9457023F
:10056000CF93DF93823029F490914A029860909360
:100570004A0280934E0210924F0280E48093500210
:1005800080E18093510280E58093520280913F0286
:100590000E948D00809140028F3F11F00E948D00DB
:1005A000809141020E948D00CBE3D2E09E012B534B
:1005B000324080914A0284FD0AC084E090E0219696
:1005C000281739073CF48E810E948D00EFCF88E018
:1005D00090E0F5CF8BE39DE00197F1F760E080912B
:1005E0003F020E94E20160E0809141020E94E2012C
:1005F000809140028F3F19F060E00E94E2018091FB
:100600004A0284FD39C063E08BE392E00E942A0233
:10061000CBE4D6E4CE010197F1F763E08BE392E0FF
:100620000E942A022197F1F763E08BE392E00E9497
:100630002A0283E592E00197F1F762E08BE392E012
:100640000E942A0280914A0280620E94AA0284E0EB
:1006500080934B028CE00E94AA0281E00E94AA02D1
:100660008BE39FE10197F1F782E080934C0286E0F3
:10067000DF91CF910C94AA0280620E94AA028BE4BF
:1006800096E40197F1F780914A0280620E94AA02E3
:1006900083E592E00197F1F780914A0280620E941F
:1006A000AA02D0CF41E00E94570281E090E0089575
:1006B000CF93DF93EC018091350290913602009741
:1006C00059F020913702309138022C173D0720F065
:1006D00081E0DF91CF910895BE016F5F7F4F0E944F
:1006E0007407009789F09093360280933502D09377
:1006F0003802C09337022091390230913A02232BFD
:1007000039F7FC011082E4CF80E0E3CF1F920F9213
:100710000FB60F9211242F933F934F935F936F93D4
:100720007F938F939F93AF93BF93EF93FF9388E94A
:1007300091E00E942A01FF91EF91BF91AF919F91AB
:100740008F917F916F915F914F913F912F910F907A
:100750000FBE0F901F9018951F920F920FB60F9219
:1007600011242F938F939F93EF93FF93E091A80110
:10077000F091A9018081E091AE01F091AF0182FD7D
:100780001BC090818091B1018F5F8F732091B20166
:10079000821741F0E091B101F0E0E856FE4F958FED
:1007A0008093B101FF91EF919F918F912F910F90C5
:1007B0000FBE0F901F9018958081F4CF1F920F925B
:1007C0000FB60F9211242F933F938F939F93AF9364
:1007D000BF9380912B0190912C01A0912D01B0919C
:1007E0002E0130912A0123E0230F2D3758F5019671
:1007F000A11DB11D20932A0180932B0190932C0100
:10080000A0932D01B0932E01809126019091270194
:10081000A0912801B09129010196A11DB11D8093DD
:10082000260190932701A0932801B0932901BF913D
:10083000AF919F918F913F912F910F900FBE0F908D
:100840001F90189526E8230F0296A11DB11DD2CF47
:1008500010929B0110929A0188EE93E0A0E0B0E024
:1008600080939C0190939D01A0939E01B0939F0162
:100870008AE091E0909399018093980185EC90E053
:100880009093A5018093A40184EC90E09093A7013C
:100890008093A60180EC90E09093A9018093A80139
:1008A00081EC90E09093AB018093AA0182EC90E000
:1008B0009093AD018093AC0186EC90E09093AF01F2
:1008C0008093AE011092B1011092B2011092B30167
:1008D0001092B40110923E0210923D028CE191E020
:1008E00090933C0280933B028AE080933F028FEF1B
:1008F000809340028BE08093410282E08093420229
:1009000083E08093430284E08093440285E08093F7
:10091000450286E08093460287E08093470288E0A4
:100920008093480289E08093490280E180934A02E3
:1009300081E00E94B00210923602109235021092AD
:1009400038021092370210923A021092390290E067
:1009500080E00E94580320913502309136028111C7
:1009600013C02115310519F0C9010E94EB06109240
:1009700036021092350210923A0210923902109209
:10098000380210923702089510923A0210923902FA
:1009900064E271E0C9010C943A08789484B58260ED
:1009A00084BD84B5816084BD85B5826085BD85B513
:1009B000816085BD80916E00816080936E00109291
:1009C000810080918100826080938100809181000C
:1009D000816080938100809180008160809380009D
:1009E0008091B10084608093B1008091B0008160FB
:1009F0008093B00080917A00846080937A00809127
:100A00007A00826080937A0080917A00816080937E
:100A10007A0080917A00806880937A001092C100F9
:100A200082E00E94B002E091A801F091A90182E069
:100A30008083E091A401F091A5011082E091A601CC
:100A4000F091A7018FEC80831092B001E091AC018E
:100A5000F091AD0186E08083E091AA01F091AB01B5
:100A6000808180618083E091AA01F091AB01808157
:100A700088608083E091AA01F091AB018081806859
:100A80008083E091AA01F091AB0180818F7D80830A
:100A900002E311E02EE7622E20E0722E3AEBE32E05
:100AA00030E0F32E46EAC42E40E0D42E5BE3A52EC0
:100AB0005FE1B52E5524539490E0892E90E0992E55
:100AC00088E991E00E940A0118161906E4F588E900
:100AD00091E00E94E8002091960130919701F90180
:100AE000EE5CFE4F80838D3039F5108210929701B5
:100AF000109296018091300190913101019690936E
:100B000031018093300150922F01E0914E0280FD1F
:100B10000DC0E23048F4E150F0E0E55CFD4F84891F
:100B200080680E94AA02CCCFE1E0F6CF81E0E1111B
:100B300080E08195E82FF0CF2F5F3F4F30939701F2
:100B400020939601BDCF80912F01882381F1F80178
:100B500001900020E9F7AF014353514062E371E097
:100B60008BE392E00E94AC0010922F01E801099003
:100B70000020E9F7C353D140CE010E9458032091D1
:100B800035023091360281113AC02115310519F034
:100B9000C9010E94EB0610923602109235021092A3
:100BA0003A02109239021092380210923702F30181
:100BB0008491F701C491F601D491DD23A1F0811154
:100BC0000E94B901ED2FF0E0EE0FFF1FE859FF4F33
:100BD000A591B4918C91C82331F081E00E94AA02C2
:100BE000C5010197F1F78114910409F469CF0E94BE
:100BF0001601882309F464CF0E9400005DCFD093D2
:100C00003A02C093390262E371E0C9010E943A08D6
:100C1000CECF8091350290913602009711F00C945E
:100C2000EB0608952F923F924F925F926F927F92C0
:100C30008F929F92AF92BF92CF92DF92EF92FF92EC
:100C40000F931F93CF93DF93CDB7DEB7CA1BDB0B98
:100C50000FB6F894DEBF0FBECDBF09942A8839883D
:100C600048885F846E847D848C849B84AA84B98444
:100C7000C884DF80EE80FD800C811B81AA81B98150
:100C8000CE0FD11D0FB6F894DEBF0FBECDBFED0164
:100C90000895EE0FFF1F0590F491E02D09940F9336
:100CA0001F93CF93DF938230910510F482E090E0A0
:100CB000E0915502F091560230E020E0B0E0A0E073
:100CC000309799F42115310509F44AC0281B390BD6
:100CD00024303105D8F58A819B816115710589F130
:100CE000FB0193838283FE0111C040815181028107
:100CF000138148175907E0F04817590799F41097DE
:100D000061F012960C93129713961C933296CF01B2
:100D1000DF91CF911F910F91089500935502109389
:100D20005602F4CF2115310551F04217530738F020
:100D3000A901DB019A01BD01DF01F801C1CFEF017B
:100D4000F9CF9093560280935502CDCFFE01E20F6A
:100D5000F31F819391932250310939832883D7CF90
:100D60002091530230915402232B41F4209102012F
:100D700030910301309354022093530220910001DB
:100D8000309101012115310541F42DB73EB7409155
:100D9000040150910501241B350BE0915302F091A1
:100DA0005402E217F307A0F42E1B3F0B2817390754
:100DB00078F0AC014E5F5F4F2417350748F04E0FB7
:100DC0005F1F5093540240935302819391939FCF9E
:100DD000F0E0E0E09CCFCF93DF930097E9F0FC01D7
:100DE000329713821282A0915502B0915602ED0102
:100DF00030E020E01097A1F420813181820F931F11
:100E000020915302309154022817390709F061C02C
:100E1000F0935402E0935302DF91CF910895EA01D9
:100E2000CE17DF07E8F54A815B819E014115510528
:100E3000B1F7E901FB83EA8349915991C40FD51FAA
:100E4000EC17FD0761F4808191810296840F951F54
:100E5000E90199838883828193819B838A83F0E06F
:100E6000E0E012968D919C9113970097B9F52D9122
:100E70003C911197CD010296820F931F209153024E
:100E8000309154022817390739F6309751F51092EE
:100E9000560210925502B0935402A0935302BCCF55
:100EA000D383C28340815181840F951FC817D9070E
:100EB00061F44E5F5F4F88819981480F591F5183BC
:100EC00040838A819B81938382832115310509F0B8
:100ED000B0CFF0935602E09355029ECFFD01DC01A6
:100EE000C0CF13821282D7CFB0E0A0E0EAE7F7E0EC
:100EF0000C9414068C01009751F4CB010E944F060C
:100F00008C01C801CDB7DEB7E0E10C943006FC01DE
:100F1000E60FF71F9C0122503109E217F30708F48E
:100F20009DC0D901CD91DC911197C617D70798F0D4
:100F3000C530D10530F3CE0104978617970708F323
:100F4000C61BD70B2297C193D1936D937C93CF018E
:100F50000E94EB06D6CF5B01AC1ABD0A4C018C0E89
:100F60009D1EA0915502B0915602512C412CF12C9E
:100F7000E12C109731F5809153029091540288151D
:100F8000990509F05CC04616570608F058C08091D4
:100F9000000190910101009741F48DB79EB74091F7
:100FA000040150910501841B950BE817F90708F01F
:100FB00055C0F0935402E0935302F90171836083AA
:100FC000A0CF8D919C91119712966C9012971396C9
:100FD0007C901397A815B90559F56C0142E0C40E31
:100FE000D11CCA14DB0420F1AC014A195B09DA01F7
:100FF0001296159780F06282738251834083D901E3
:101000006D937C93E114F10471F0D7011396FC9376
:10101000EE93129776CF22968C0F9D1FF901918344
:101020008083F301EFCFF0935602E093550269CF2E
:101030004816590608F42C017D01D3019ACFCB0143
:101040000E944F067C01009749F0AE01B8010E9452
:101050003108C8010E94EB06870153CF10E000E081
:1010600050CFFB01DC0102C001900D924150504075
:10107000D8F70895FB01DC0101900D920020E1F703
:10108000089510E0C2E6D0E004C0FE010E944906C7
:101090002196C336D107C9F7F894FFCF0000570255
:1010A0008000000000004C01AC00D90099010A0149
:1010B000E800FC00000000005203AC001102100226
:0210C00000002E
:107E0000112484B714BE81FFF0D085E080938100F7
:107E100082E08093C00088E18093C10086E0809377
:107E2000C20080E18093C4008EE0C9D0259A86E02C
:107E300020E33CEF91E0309385002093840096BBD3
:107E4000B09BFECF1D9AA8958150A9F7CC24DD24C4
:107E500088248394B5E0AB2EA1E19A2EF3E0BF2EE7
:107E6000A2D0813461F49FD0082FAFD0023811F036
:107E7000013811F484E001C083E08DD089C08234E0
:107E800011F484E103C0853419F485E0A6D080C0E4
:107E9000853579F488D0E82EFF2485D0082F10E0AE
:107EA000102F00270E291F29000F111F8ED06801E7
:107EB0006FC0863521F484E090D080E0DECF843638
:107EC00009F040C070D06FD0082F6DD080E0C81688
:107ED00080E7D80618F4F601B7BEE895C0E0D1E017
:107EE00062D089930C17E1F7F0E0CF16F0E7DF06D8
:107EF00018F0F601B7BEE89568D007B600FCFDCFD4
:107F0000A601A0E0B1E02C9130E011968C91119780
:107F100090E0982F8827822B932B1296FA010C0160
:107F200087BEE89511244E5F5F4FF1E0A038BF0790
:107F300051F7F601A7BEE89507B600FCFDCF97BE46
:107F4000E89526C08437B1F42ED02DD0F82E2BD052
:107F50003CD0F601EF2C8F010F5F1F4F84911BD097
:107F6000EA94F801C1F70894C11CD11CFA94CF0C13
:107F7000D11C0EC0853739F428D08EE10CD085E9AC
:107F80000AD08FE07ACF813511F488E018D01DD067
:107F900080E101D065CF982F8091C00085FFFCCF94
:107FA0009093C60008958091C00087FFFCCF809118
:107FB000C00084FD01C0A8958091C6000895E0E648
:107FC000F0E098E1908380830895EDDF803219F02E
:107FD00088E0F5DFFFCF84E1DECF1F93182FE3DFCA
:107FE0001150E9F7F2DF1F91089580E0E8DFEE27F6
:047FF000FF270994CA
:027FFE00040479
:00000001FF
