:100000000C9462000C948A000C948A000C948A0070
:100010000C948A000C948A000C948A000C948A0038
:100020000C948A000C948A000C948A000C948A0028
:100030000C948A000C948A000C948A000C948A0018
:100040000C9402030C948A000C94D0020C94AA0223
:100050000C948A000C948A000C948A000C948A00F8
:100060000C948A000C948A000000000024002700F1
:100070002A0000000000250028002B0000000000DE
:1000800023002600290004040404040404040202DA
:100090000202020203030303030301020408102007
:1000A0004080010204081020010204081020000012
:1000B0000008000201000003040700000000000027
:1000C0000000D20611241FBECFEFD8E0DEBFCDBFA7
:1000D00011E0A0E0B1E0EEE0FEE002C005900D927C
:1000E000A431B107D9F721E0A4E1B1E001C01D922C
:1000F000AC3BB207E1F710E0C2E6D0E004C02197C4
:10010000FE010E94FF06C136D107C9F70E944C03C9
:100110000C9405070C940000AF92BF92CF92DF922F
:10012000EF92FF920F931F93CF93DF936C017B01AC
:100130008B01040F151FEB015E01AE18BF08C0173D
:10014000D10759F06991D601ED91FC910190F081B0
:10015000E02DC6010995892B79F7C501DF91CF9173
:100160001F910F91FF90EF90DF90CF90BF90AF90D5
:100170000895FC01538D448D252F30E0842F90E0AD
:10018000821B930B541710F0CF9608950197089592
:10019000FC01918D828D981761F0A28DAE0FBF2F5B
:1001A000B11D5D968C91928D9F5F9F73928F90E0B1
:1001B00008958FEF9FEF0895FC01918D828D981720
:1001C00031F0828DE80FF11D858D90E008958FEF5D
:1001D0009FEF0895FC01918D228D892F90E0805C26
:1001E0009F4F821B91098F73992708958FE191E0AA
:1001F0000E94EA0021E0892B09F420E0822F089573
:1002000080E090E0892B29F00E94F60081110C9487
:1002100000000895FC01A48DA80FB92FB11DA35AA9
:10022000BF4F2C91848D90E001968F739927848F16
:10023000A689B7892C93A089B1898C918370806439
:100240008C93938D848D981306C00288F389E02DDA
:1002500080818F7D80830895EF92FF920F931F938B
:10026000CF93DF93EC0181E0888F9B8D8C8D981369
:100270001AC0E889F989808185FF15C09FB7F89475
:10028000EE89FF896083E889F989808183708064C1
:1002900080839FBF81E090E0DF91CF911F910F910C
:1002A000FF90EF900895F62E0B8D10E00F5F1F4F1B
:1002B0000F731127E02E8C8D8E110CC00FB607FC2A
:1002C000FACFE889F989808185FFF5CFCE010E94B8
:1002D0000A01F1CFEB8DEC0FFD2FF11DE35AFF4F1B
:1002E000F0829FB7F8940B8FEA89FB898081806246
:1002F000CFCF682F8FE191E00C942C01CF93DF9347
:10030000EC01888D8823B9F0AA89BB89E889F9892D
:100310008C9185FD03C0808186FD0DC00FB607FC62
:10032000F7CF8C9185FFF2CF808185FFEDCFCE0195
:100330000E940A01E9CFDF91CF910895833081F0C7
:1003400028F4813099F08230A9F008958730A9F01F
:100350008830C9F08430B1F4809180008F7D03C073
:10036000809180008F7780938000089584B58F7787
:1003700084BD089584B58F7DFBCF8091B0008F77C9
:100380008093B00008958091B0008F7DF9CFCF9316
:10039000DF93282F30E0F901E255FF4F8491F901F6
:1003A000E656FF4FD491F901EA57FF4FC491CC2391
:1003B000A1F081110E949E01EC2FF0E0EE0FFF1FD3
:1003C000E458FF4FA591B491EC91ED2381E090E0CA
:1003D00009F480E0DF91CF91089580E090E0FACFBA
:1003E0001F93CF93DF93282F30E0F901E255FF4FA1
:1003F0008491F901E656FF4FD491F901EA57FF4F76
:10040000C491CC23A9F0162F81110E949E01EC2FDC
:10041000F0E0EE0FFF1FEE58FF4FA591B4918FB79C
:10042000F894EC91111108C0D095DE23DC938FBFB6
:10043000DF91CF911F910895DE2BF8CFCF93DF93FB
:1004400090E0FC01E656FF4F24918A579F4FFC0134
:1004500084918823D1F090E0880F991FFC01E8591E
:10046000FF4FA591B491FC01EE58FF4FC591D49177
:1004700061110EC09FB7F8948C91E22FE0958E2306
:100480008C932881E223E8839FBFDF91CF91089569
:100490008FB7F894EC91E22BEC938FBFF6CF3FB778
:1004A000F8948091190190911A01A0911B01B091CB
:1004B0001C0126B5A89B05C02F3F19F00196A11D70
:1004C000B11D3FBFBA2FA92F982F8827BC01CD019E
:1004D000620F711D811D911D42E0660F771F881FFD
:1004E000991F4A95D1F708958F929F92AF92BF922C
:1004F000CF92DF92EF92FF920E944F024B015C017C
:1005000084EFC82EDD24D394E12CF12C0E944F02FD
:10051000681979098A099B09683E7340810591052C
:10052000A8F321E0C21AD108E108F10888EE880E8C
:1005300083E0981EA11CB11CC114D104E104F10494
:1005400029F7FF90EF90DF90CF90BF90AF909F90F2
:100550008F9008951F920F920FB60F9211242F9330
:100560003F934F935F936F937F938F939F93AF933B
:10057000BF93EF93FF938FE191E00E940A01FF91F7
:10058000EF91BF91AF919F918F917F916F915F910B
:100590004F913F912F910F900FBE0F901F90189584
:1005A0001F920F920FB60F9211242F938F939F9348
:1005B000EF93FF93E0912F01F09130018081E09162
:1005C0003501F091360182FD1BC090818091380188
:1005D0008F5F8F7320913901821741F0E0913801CC
:1005E000F0E0E15EFE4F958F80933801FF91EF912F
:1005F0009F918F912F910F900FBE0F901F90189584
:100600008081F4CF1F920F920FB60F9211242F9377
:100610003F938F939F93AF93BF93809115019091D8
:100620001601A0911701B09118013091140123E037
:10063000230F2D3758F50196A11DB11D20931401EC
:100640008093150190931601A0931701B0931801A0
:100650008091190190911A01A0911B01B0911C0188
:100660000196A11DB11D8093190190931A01A093C9
:100670001B01B0931C01BF91AF919F918F913F914E
:100680002F910F900FBE0F901F90189526E8230F03
:100690000296A11DB11DD2CF789484B5826084BD2D
:1006A00084B5816084BD85B5826085BD85B5816076
:1006B00085BD80916E00816080936E0010928100F4
:1006C00080918100826080938100809181008160AF
:1006D0008093810080918000816080938000809170
:1006E000B10084608093B1008091B00081608093FC
:1006F000B00080917A00846080937A0080917A00C3
:10070000826080937A0080917A00816080937A0081
:1007100080917A00806880937A001092C10061E035
:1007200082E00E941E0261E083E00E941E0261E0FE
:1007300084E00E941E0261E085E00E941E0261E0EA
:1007400086E00E941E0260E087E00E941E0260E0D8
:1007500088E00E941E0260E089E00E941E0260E0C4
:100760008AE00E941E0261E08BE00E941E0261E0AE
:100770008CE00E941E0261E08DE00E941E02E0916A
:100780002F01F091300182E08083E0912B01F09104
:100790002C011082E0912D01F0912E018FEC8083CD
:1007A00010923701E0913301F091340186E08083AB
:1007B000E0913101F0913201808180618083E0918C
:1007C0003101F0913201808188608083E0913101B4
:1007D000F0913201808180688083E0913101F09155
:1007E000320180818F7D808361E082E00E94F00190
:1007F00061E086E00E94F001C3EBD0E000E010E091
:100800008FE191E00E94EA00181619060CF0F5C17C
:100810008FE191E00E94C800813699F460E083E0A6
:100820000E94F00160E084E00E94F0010E947402E6
:1008300061E082E00E94F00161E086E00E94F00148
:10084000DFCF883689F460E082E00E94F00160E04A
:1008500086E00E94F0010E94740261E083E00E9441
:10086000F00161E084E0EACF803771F460E082E07B
:100870000E94F00160E086E00E94F00160E083E009
:100880000E94F00160E0EECF209100013091010163
:10089000E0EDE80FEA30F0F40E2E000CFF0BEB5AFF
:1008A000FB4FC90101960C94FF065F048704A9045D
:1008B000C804E704060525054405630582052130C3
:1008C000310521F410921E0110921D019093010137
:1008D000809300018091000190910101049709F03B
:1008E0008FCF8AE00E94C7018130910509F029C1AC
:1008F000909301018093000110921E0110921D013E
:1009000061E085E00E941E0260E085E097CF213023
:10091000310559F420911D0130911E012C593F4F92
:1009200030931E0120931D01D1CF2230310539F4BF
:1009300020911D0130911E01265F3F4FF1CF2330E2
:10094000310521F620911D0130911E012F5F3F4F8F
:10095000E7CF2130310539F420911D0130911E017E
:1009600028533F4FDDCF2230310539F420911D014E
:1009700030911E012C5E3F4FD3CF2330310509F05B
:10098000A5CF20911D0130911E012E5F3F4FC8CF92
:100990002130310539F420911D0130911E01245D73
:1009A0003E4FBECF2230310539F420911D013091E8
:1009B0001E01225E3F4FB4CF2330310509F086CFB0
:1009C00020911D0130911E012D5F3F4FA9CF213095
:1009D000310539F420911D0130911E0120573E4F01
:1009E0009FCF2230310539F420911D0130911E0135
:1009F000285D3F4F95CF2330310509F067CF209117
:100A00001D0130911E012C5F3F4F8ACF21303105EF
:100A100039F420911D0130911E012C503E4F80CFA2
:100A20002230310539F420911D0130911E012E5CD8
:100A30003F4F76CF2330310509F048CF20911D017B
:100A400030911E012B5F3F4F6BCF2130310539F4C0
:100A500020911D0130911E01285A3D4F61CF223057
:100A6000310539F420911D0130911E01245C3F4F66
:100A700057CF2330310509F029CF20911D01309146
:100A80001E012A5F3F4F4CCF2130310539F42091B0
:100A90001D0130911E0124543D4F42CF22303105BB
:100AA00039F420911D0130911E012A5B3F4F38CF50
:100AB0002330310509F00ACF20911D0130911E012C
:100AC000295F3F4F2DCF2130310539F420911D0191
:100AD00030911E01205E3C4F23CF2230310539F486
:100AE00020911D0130911E01205B3F4F19CF233013
:100AF000310509F0EBCE20911D0130911E01285FD8
:100B00003F4F0ECF2130310539F420911D01309136
:100B10001E012C573C4F04CF2230310539F420916F
:100B20001D0130911E01265A3F4FFACE2330310568
:100B300009F0CCCE20911D0130911E01275F3F4F5F
:100B4000EFCE61E08DE00E94F001E0901D01F09099
:100B50001E0161E085E00E941E02E114F10429F407
:100B600060E085E00E94F001BCCE8FEFE816F10452
:100B700011F461E0F6CFFE018491833021F148F455
:100B80008130B9F08230D1F0F0E8EF16F1048CF743
:100B9000E7CF873011F1883041F18430A9F7809197
:100BA0008000806280938000F0928B00E0928A0047
:100BB00098CE84B5806884BDE7BC93CE84B580624E
:100BC00084BDE8BC8ECE80918000806880938000D8
:100BD000F0928900E092880084CE8091B000806815
:100BE0008093B000E092B3007CCE8091B000806230
:100BF0008093B000E092B40074CE61E08BE00E947C
:100C0000F00160E08CE00E94F00160E08DE00E9465
:100C1000F00187E00E94C701019709F04BC087E00F
:100C20000E94C7010197D9F381E390E00E94790106
:100C300060E08BE00E94F00161E08CE00E94F00136
:100C400060E08DE00E94F00187E00E94C7010197FB
:100C500009F058C087E00E94C7010197D9F382E3E9
:100C600090E00E94790160E08BE00E94F00160E07A
:100C70008CE00E94F00161E08DE00E94F00187E0CD
:100C80000E94C701019709F065C087E00E94C70173
:100C90000197D9F383E390E00E94790101151105D2
:100CA00009F4AECD0E94F600882309F4A9CD0E9474
:100CB0000000A6CD88E00E94C701019741F488E0BA
:100CC0000E94C7010197D9F384E390E0AFCF89E098
:100CD0000E94C701019741F489E00E94C701019772
:100CE000D9F387E390E0A2CF8AE00E94C701019781
:100CF00009F09ECF8AE00E94C7010197D9F381E6EF
:100D000090E094CF88E00E94C701019741F488E009
:100D10000E94C7010197D9F385E390E0A2CF89E053
:100D20000E94C701019741F489E00E94C701019721
:100D3000D9F388E390E095CF8AE00E94C70101973C
:100D400009F091CF8AE00E94C7010197D9F388E6A4
:100D500090E087CF88E00E94C701019741F488E0C6
:100D60000E94C7010197D9F386E390E095CF89E00F
:100D70000E94C701019741F489E00E94C7010197D1
:100D8000D9F389E390E088CF8AE00E94C7010197F8
:100D900009F084CF8AE00E94C7010197D9F380E768
:100DA00090E07ACFEFE1F1E01382128288EE93E0D7
:100DB000A0E0B0E084839583A683B78386E091E0CA
:100DC0009183808385EC90E09587848784EC90E024
:100DD0009787868780EC90E0918B808B81EC90E008
:100DE000938B828B82EC90E0958B848B86EC90E0E9
:100DF000978B868B118E128E138E148E0895EE0FA4
:0E0E0000FF1F0590F491E02D0994F894FFCFA8
:100E0E000100000000002C018C00B9007E01EA00F8
:040E1E00C800DC002C
:00000001FF
