:100000000C9461000C9473000C9473000C947300B6
:100010000C9473000C9473000C9473000C94730094
:100020000C9473000C9473000C9473000C94730084
:100030000C9473000C9473000C9473000C94730074
:100040000C94F5000C9473000C9473000C947300E2
:100050000C9473000C9473000C9473000C94730054
:100060000C9473000C947300000000002300260021
:10007000290000000008000201000003040700003E
:1000800000000000000000000000250028002B00F8
:1000900000000000240027002A00040404040404D3
:1000A0000404020202020202030303030303010227
:1000B00004081020408001020408102001020408F6
:1000C000102011241FBECFEFD8E0DEBFCDBF21E04E
:1000D000A0E0B1E001C01D92A930B207E1F70E9493
:1000E0003F010C9498020C940000833081F028F4B6
:1000F000813099F08230A9F008958730A9F08830D6
:10010000C9F08430B1F4809180008F7D03C080916C
:1001100080008F7780938000089584B58F7784BDA9
:10012000089584B58F7DFBCF8091B0008F77809349
:10013000B00008958091B0008F7DF9CFCF93DF9309
:10014000282F30E0F901EE58FF4F8491F901E25574
:10015000FF4FD491F901E656FF4FC491CC23A1F093
:1001600081110E947500EC2FF0E0EE0FFF1FE8599F
:10017000FF4FA591B491EC91ED2381E090E009F45B
:1001800080E0DF91CF91089580E090E0FACF1F9357
:10019000CF93DF93282F30E0F901EE58FF4F849181
:1001A000F901E255FF4FD491F901E656FF4FC49192
:1001B000CC23A9F0162F81110E947500EC2FF0E0DE
:1001C000EE0FFF1FEA57FF4FA591B4918FB7F89438
:1001D000EC91111108C0D095DE23DC938FBFDF9125
:1001E000CF911F910895DE2BF8CF1F920F920FB67B
:1001F0000F9211242F933F938F939F93AF93BF93AD
:100200008091050190910601A0910701B09108012C
:100210003091040123E0230F2D3758F50196A11DDD
:10022000B11D209304018093050190930601A093D2
:100230000701B09308018091000190910101A09104
:100240000201B09103010196A11DB11D809300012F
:1002500090930101A0930201B0930301BF91AF916C
:100260009F918F913F912F910F900FBE0F901F90F4
:10027000189526E8230F0296A11DB11DD2CF7894C0
:1002800084B5826084BD84B5816084BD85B582609B
:1002900085BD85B5816085BD80916E00816080934C
:1002A0006E001092810080918100826080938100B5
:1002B00080918100816080938100809180008160C5
:1002C000809380008091B10084608093B100809120
:1002D000B00081608093B00080917A008460809348
:1002E0007A0080917A00826080937A0080917A000F
:1002F000816080937A0080917A00806880937A0090
:100300001092C10030E020E0F901E255FF4F449126
:10031000F901E656FF4F8491882399F090E0880F09
:10032000991FFC01E057FF4FA591B491FC01EA57DA
:10033000FF4F859194918FB7F894EC91E42BEC9357
:100340008FBF2F5F3F4F2E303105F1F6C0E0D0E078
:1003500061E08BE00E94C70060E08CE00E94C70073
:1003600060E08DE00E94C70087E00E949E00019738
:10037000E1F460E080E00E94C70060E081E00E945C
:10038000C70060E082E00E94C70060E083E00E9456
:10039000C70061E084E00E94C70061E085E00E9440
:1003A000C70060E086E00E94C70088E00E949E00CF
:1003B0000197E1F461E080E00E94C70061E081E024
:1003C0000E94C70060E082E00E94C70060E083E016
:1003D0000E94C70061E084E00E94C70061E085E000
:1003E0000E94C70060E086E00E94C70060E08BE0EA
:1003F0000E94C70061E08CE00E94C70060E08DE0D1
:100400000E94C70087E00E949E000197E1F461E02E
:1004100080E00E94C70060E081E00E94C70061E0C8
:1004200082E00E94C70061E083E00E94C70060E0B4
:1004300084E00E94C70061E085E00E94C70061E09F
:1004400086E00E94C70088E00E949E000197E1F4C8
:1004500061E080E00E94C70061E081E00E94C70087
:1004600060E082E00E94C70061E083E00E94C70074
:1004700061E084E00E94C70060E085E00E94C70060
:1004800061E086E00E94C70060E08BE00E94C70048
:1004900060E08CE00E94C70061E08DE00E94C70030
:1004A00087E00E949E000197E1F461E080E00E94F5
:1004B000C70060E081E00E94C70060E082E00E9427
:1004C000C70061E083E00E94C70061E084E00E9411
:1004D000C70061E085E00E94C70061E086E00E94FD
:1004E000C70088E00E949E000197E1F461E080E08F
:1004F0000E94C70061E081E00E94C70061E082E0E5
:100500000E94C70061E083E00E94C70061E084E0D0
:100510000E94C70060E085E00E94C70061E086E0BD
:100520000E94C700209709F413CF0E94000010CF4B
:04053000F894FFCF6D
:00000001FF
