:020000040000FA
:100000000C945D000C9485000C9485000C94850084
:100010000C9485000C9485000C9485000C9485004C
:100020000C9485000C9485000C9485000C9485003C
:100030000C9485000C9485000C9485000C9485002C
:100040000C9416040C9485000C94E4030C94BE03E9
:100050000C9485000C9485000C9485000C9485000C
:100060000C9485000C94850000000008000201003B
:100070000003040700000000000000000000000072
:10008000250028002B0000000000240027002A0083
:10009000040404040404040402020202020203032E
:1000A0000303030301020408102040800102040836
:1000B0001020010204081020600411241FBECFEF9D
:1000C000D8E0DEBFCDBF11E0A0E0B1E0E2ECFEE0A1
:1000D00002C005900D92A033B107D9F721E0A0E34B
:1000E000B1E001C01D92A33FB207E1F710E0CDE5FA
:1000F000D0E004C02197FE010E945907CC35D107FA
:10010000C9F70E94AA040C945F070C94000090E0C9
:10011000FC01EC55FF4F249180579F4FFC018491C7
:10012000882399F090E0880F991FFC01EA57FF4F50
:10013000A591B491FC01E458FF4F859194918FB73C
:10014000F894EC91E22BEC938FBF0895AF92BF929D
:10015000CF92DF92EF92FF920F931F93CF93DF9393
:100160006C017B018B01040F151FEB015E01AE18C2
:10017000BF08C017D10759F06991D601ED91FC91E4
:100180000190F081E02DC6010995892B79F7C50111
:10019000DF91CF911F910F91FF90EF90DF90CF9063
:1001A000BF90AF900895FC01538D448D252F30E012
:1001B000842F90E0821B930B541710F0CF96089574
:1001C00001970895FC01918D828D981761F0A28DA1
:1001D000AE0FBF2FB11D5D968C91928D9F5F9F7367
:1001E000928F90E008958FEF9FEF0895FC01918D1D
:1001F000828D981731F0828DE80FF11D858D90E08A
:1002000008958FEF9FEF0895FC01918D228D892F26
:1002100090E0805C9F4F821B91098F73992708950E
:100220008EE391E00E94040121E0892B09F420E093
:10023000822F089580E090E0892B29F00E94100120
:1002400081110C9400000895FC01A48DA80FB92F12
:10025000B11DA35ABF4F2C91848D90E001968F73EE
:100260009927848FA689B7892C93A089B1898C910D
:10027000837080648C93938D848D981306C002885C
:10028000F389E02D80818F7D80830895EF92FF9226
:100290000F931F93CF93DF93EC0181E0888F9B8DA9
:1002A0008C8D98131AC0E889F989808185FF15C063
:1002B0009FB7F894EE89FF896083E889F989808186
:1002C0008370806480839FBF81E090E0DF91CF9155
:1002D0001F910F91FF90EF900895F62E0B8D10E077
:1002E0000F5F1F4F0F731127E02E8C8D8E110CC0E6
:1002F0000FB607FCFACFE889F989808185FFF5CF31
:10030000CE010E942401F1CFEB8DEC0FFD2FF11DEA
:10031000E35AFF4FF0829FB7F8940B8FEA89FB896D
:1003200080818062CFCFCF93DF93EC01888D8823CB
:10033000B9F0AA89BB89E889F9898C9185FD03C048
:10034000808186FD0DC00FB607FCF7CF8C9185FF2D
:10035000F2CF808185FFEDCFCE010E942401E9CF4D
:10036000DF91CF91089590E0FC01E859FF4F24916F
:10037000FC01EC55FF4F3491FC01E057FF4FE49135
:10038000EE23C9F0222339F0233001F1A8F4213003
:1003900019F1223029F1F0E0EE0FFF1FE458FF4F72
:1003A000A591B4918FB7F894EC91611126C0309566
:1003B0003E233C938FBF08952730A9F02830C9F021
:1003C000243049F7809180008F7D03C080918000A8
:1003D0008F7780938000DFCF84B58F7784BDDBCFAC
:1003E00084B58F7DFBCF8091B0008F778093B00074
:1003F000D2CF8091B0008F7DF9CF3E2BDACF3FB7BF
:10040000F8948091350190913601A0913701B09117
:10041000380126B5A89B05C02F3F19F00196A11DF4
:10042000B11D3FBFBA2FA92F982F8827BC01CD013E
:10043000620F711D811D911D42E0660F771F881F9D
:10044000991F4A95D1F708958F929F92AF92BF92CC
:10045000CF92DF92EF92FF920E94FF014B015C016D
:1004600084EFC82EDD24D394E12CF12C0E94FF01EF
:10047000681979098A099B09683E734081059105CD
:10048000A8F321E0C21AD108E108F10888EE880E2D
:1004900083E0981EA11CB11CC114D104E104F10435
:1004A00029F7FF90EF90DF90CF90BF90AF909F9093
:1004B0008F900895089590E080E00895FC010190E8
:1004C0000020E9F73197AF01481B590BBC018BEDB8
:1004D00091E00C94A600CF93DF93EC0160E08E8155
:1004E0000E94B30161E08E810E94B30160E08E81C1
:1004F0000E94B3018BE891E00197F1F7DF91CF9172
:100500000895CF92DF92EF92FF920F931F93CF93B4
:10051000DF936C017C0187E0E80EF11CD0E0C0E0C5
:10052000062F10E0B8010C2E02C0759567950A944D
:10053000E2F76170F70181917F010E94B30121967A
:10054000C430D10579F7C601DF91CF911F910F918A
:10055000FF90EF90DF90CF900C946B02CF92DF92E0
:10056000EF92FF920F931F93CF93DF93EC01F62E40
:10057000642F8C810E94B3018D818F3F19F060E060
:100580000E94B3010F2D10E08F8584FF25C06E01FE
:1005900087E0C80ED11CF12CE12CB8010E2C02C052
:1005A000759567950A94E2F76170F60181916F0184
:1005B0000E94B301FFEFEF1AFF0A88E0E816F1048A
:1005C00061F7CE01DF91CF911F910F91FF90EF90D6
:1005D000DF90CF900C946B02B80184E0759567951D
:1005E0008A95E1F7CE010E9481026F2DCE01DF9145
:1005F000CF911F910F91FF90EF90DF90CF900C94CF
:10060000810240E0682F8BED91E00C94AE02CF9315
:10061000DF93823029F49091EA0198609093EA0187
:100620008093EE011092EF0180E48093F00180E16D
:100630008093F10180E58093F2018091DF010E94B7
:1006400087008091E0018F3F11F00E948700809128
:10065000E1010E948700CBEDD1E09E012B5D31408E
:100660008091EA0184FD0AC084E090E02196281779
:1006700039073CF48E810E948700EFCF88E090E03C
:10068000F5CF8BE39DE00197F1F760E08091DF010A
:100690000E94B30160E08091E1010E94B30180916A
:1006A000E0018F3F19F060E00E94B3018091EA0100
:1006B00084FD39C063E08BED91E00E948102CBE4C0
:1006C000D6E4CE010197F1F763E08BED91E00E9453
:1006D00081022197F1F763E08BED91E00E948102A6
:1006E00083E592E00197F1F762E08BED91E00E94E3
:1006F00081028091EA0180620E94010384E080937C
:10070000EB018CE00E94010381E00E9401038BE376
:100710009FE10197F1F782E08093EC0186E0DF91A1
:10072000CF910C94010380620E9401038BE496E454
:100730000197F1F78091EA0180620E94010383E54D
:1007400092E00197F1F78091EA0180620E94010333
:10075000D0CF9091EE01691710F06FEF690FE62F7F
:10076000F0E0E552FE4F9489890F80680C940103F4
:1007700041E00E94AE0281E090E008951F920F9246
:100780000FB60F9211242F933F934F935F936F9364
:100790007F938F939F93AF93BF93EF93FF938EE3DA
:1007A00091E00E942401FF91EF91BF91AF919F9141
:1007B0008F917F916F915F914F913F912F910F900A
:1007C0000FBE0F901F9018951F920F920FB60F92A9
:1007D00011242F938F939F93EF93FF93E0914E01FA
:1007E000F0914F018081E0915401F091550182FD1B
:1007F0001BC09081809157018F5F8F7320915801AA
:10080000821741F0E0915701F0E0E25CFE4F958FD6
:1008100080935701FF91EF919F918F912F910F90AE
:100820000FBE0F901F9018958081F4CF1F920F92EA
:100830000FB60F9211242F933F938F939F93AF93F3
:10084000BF938091310190913201A0913301B09119
:1008500034013091300123E0230F2D3758F50196F4
:10086000A11DB11D2093300180933101909332017D
:10087000A0933301B09334018091350190913601FA
:10088000A0913701B09138010196A11DB11D80934F
:10089000350190933601A0933701B0933801BF9191
:1008A000AF919F918F913F912F910F900FBE0F901D
:1008B0001F90189526E8230F0296A11DB11DD2CFD7
:1008C000EEE3F1E01382128288EE93E0A0E0B0E064
:1008D00084839583A683B78386E091E091838083A8
:1008E00085EC90E09587848784EC90E097878687F5
:1008F00080EC90E0918B808B81EC90E0938B828BED
:1009000082EC90E0958B848B86EC90E0978B868BC5
:10091000118E128E138E148EEBEDF1E01382128283
:1009200088E191E0918380838AE084838FEF8583DF
:100930008BE0868387E0878388E0808789E08187F2
:100940008CE082871386148615861686178681E0CA
:100950000C940703789484B5826084BD84B581606B
:1009600084BD85B5826085BD85B5816085BD80917A
:100970006E00816080936E001092810080918100F2
:1009800082608093810080918100816080938100EA
:10099000809180008160809380008091B1008460AC
:1009A0008093B1008091B00081608093B00080910D
:1009B0007A00846080937A0080917A0082608093CC
:1009C0007A0080917A00816080937A0080917A0029
:1009D000806880937A001092C10082E00E948700B4
:1009E00083E00E94870084E00E94870085E00E94E7
:1009F000870086E00E94870082E00E940703E09162
:100A00004E01F0914F0182E08083E0914A01F09124
:100A10004B011082E0914C01F0914D018FEC8083ED
:100A200010925601E0915201F091530186E08083CB
:100A3000E0915001F0915101808180618083E091CB
:100A40005001F0915101808188608083E0915001D4
:100A5000F0915101808180688083E0915001F09194
:100A6000510180818F7D808380E291E00E945E024F
:100A700061E080E00E94A90385E291E00E945E02AD
:100A800060E084E00E94A90361E082E00E94B3017B
:100A900061E086E00E94B30140E2242E43E0342E60
:100AA0005CEB452E52E0552E68E5662E62E0762E10
:100AB00004EF11E08CE2C82EDD24D39498ECA92E2B
:100AC000B12C24E6822E912C30E0E32E30E0F32E80
:100AD0008EE391E00E940401181619060CF050C034
:100AE0008EE391E00E94E200C82F80933D018136A1
:100AF00009F44EC1883609F46AC1803709F484C10B
:100B0000682F8BED91E00E94B803809100019091D5
:100B10000101E0EDEC0FEA30F0F40E2E000CFF0BBB
:100B2000E956FA4F9C012F5F3F4F0C945907A105DE
:100B3000E80504061C0634064E0666067E06960682
:100B4000AE06019721F410923A01109239013093C8
:100B5000010120930001809100019091010104970F
:100B600031F481E090E09093010180930001809145
:100B70003B0190913C01019690933C0180933B0195
:100B800080913B0190913C01039741F460E084E047
:100B90000E94A90310923C0110923B01C0913901BF
:100BA000D0913A0185E00E948700209709F03AC170
:100BB00060E085E00E94B301E114F10409F488CFFC
:100BC0000E941001882309F475CF0E94000072CFA3
:100BD0008130910529F490923A0180923901B7CF82
:100BE0004091390150913A018230910539F4465FC4
:100BF0005F4F50933A0140933901A9CF4F5F5F4F48
:100C0000039709F0A4CFF5CF8130910529F4B09274
:100C10003A01A09239019BCF4091390150913A019C
:100C20008230910519F44C5E5F4FE3CF4E5F5F4F0A
:100C3000039709F08CCFDDCF8130910529F4D09254
:100C40003A01C092390183CF4091390150913A0164
:100C50008230910519F4425E5F4FCBCF4D5F5F4FFD
:100C6000039709F074CFC5CF8130910539F480E93D
:100C700091E090933A018093390169CF4091390115
:100C800050913A018230910519F4485D5F4FB1CF20
:100C90004C5F5F4F039709F05ACFABCF813091057E
:100CA00029F410933A010093390151CF4091390151
:100CB00050913A018230910519F44E5C5F4F99CF03
:100CC0004B5F5F4F039709F042CF93CF813091057F
:100CD00029F470923A016092390139CF409139017B
:100CE00050913A018230910519F4445C5F4F81CFF5
:100CF0004A5F5F4F039709F02ACF7BCF8130910580
:100D000029F450923A014092390121CF40913901A2
:100D100050913A018230910519F44A5B5F4F69CFD7
:100D2000495F5F4F039709F012CF63CF8130910580
:100D300029F430923A012092390109CF40913901CA
:100D400050913A018230910519F4405B5F4F51CFC9
:100D5000485F5F4F039709F0FACE4BCF8130910582
:100D600039F4E4E8F3E0F0933A01E0933901EFCE8F
:100D70004091390150913A018230910519F4465A57
:100D80005F4F37CF039709F0E2CE475F5F4F31CF18
:100D900061E084E00E94A90389E291E00E945E0282
:100DA00060E084E00E94A90360E083E00E94B30158
:100DB00060E084E00E94B3010E94240261E082E0CE
:100DC0000E94B30161E086E00E94B301D9CE61E0E8
:100DD00084E00E94A9038CE291E00E945E0260E040
:100DE00084E00E94A90360E082E00E94B30160E019
:100DF00086E00E94B3010E94240261E083E00E9429
:100E0000B30161E084E0E0CF60E082E00E94B301E2
:100E100060E086E00E94B30160E083E00E94B301DD
:100E200060E0F0CFCF3FD10511F461E0C2CEEDE636
:100E3000F0E08491833019F140F48130B1F08230D8
:100E4000C9F0C038D1058CF7B3CE873011F18830A6
:100E500041F18430B1F780918000806280938000FE
:100E6000D0938B00C0938A00A7CE84B5806884BDE0
:100E7000C7BDA2CE84B5806284BDC8BD9DCE809121
:100E80008000806880938000D0938900C0938800A0
:100E900093CE8091B00080688093B000C093B3007F
:100EA0008BCE8091B00080628093B000C093B4007C
:100EB00083CEEE0FFF1F0590F491E02D0994F89476
:100EC000FFCF0100000000004601A600D3009301FF
:100ED0000401E200F60000000000B803A6005B0277
:100EE0005A0250574D3A00524F543A414800482058
:020EF000000000
:107E0000112484B714BE81FFF0D085E080938100F7
:107E100082E08093C00088E18093C10086E0809377
:107E2000C20080E18093C4008EE0C9D0259A86E02C
:107E300020E33CEF91E0309385002093840096BBD3
:107E4000B09BFECF1D9AA8958150A9F7CC24DD24C4
:107E500088248394B5E0AB2EA1E19A2EF3E0BF2EE7
:107E6000A2D0813461F49FD0082FAFD0023811F036
:107E7000013811F484E001C083E08DD089C08234E0
:107E800011F484E103C0853419F485E0A6D080C0E4
:107E9000853579F488D0E82EFF2485D0082F10E0AE
:107EA000102F00270E291F29000F111F8ED06801E7
:107EB0006FC0863521F484E090D080E0DECF843638
:107EC00009F040C070D06FD0082F6DD080E0C81688
:107ED00080E7D80618F4F601B7BEE895C0E0D1E017
:107EE00062D089930C17E1F7F0E0CF16F0E7DF06D8
:107EF00018F0F601B7BEE89568D007B600FCFDCFD4
:107F0000A601A0E0B1E02C9130E011968C91119780
:107F100090E0982F8827822B932B1296FA010C0160
:107F200087BEE89511244E5F5F4FF1E0A038BF0790
:107F300051F7F601A7BEE89507B600FCFDCF97BE46
:107F4000E89526C08437B1F42ED02DD0F82E2BD052
:107F50003CD0F601EF2C8F010F5F1F4F84911BD097
:107F6000EA94F801C1F70894C11CD11CFA94CF0C13
:107F7000D11C0EC0853739F428D08EE10CD085E9AC
:107F80000AD08FE07ACF813511F488E018D01DD067
:107F900080E101D065CF982F8091C00085FFFCCF94
:107FA0009093C60008958091C00087FFFCCF809118
:107FB000C00084FD01C0A8958091C6000895E0E648
:107FC000F0E098E1908380830895EDDF803219F02E
:107FD00088E0F5DFFFCF84E1DECF1F93182FE3DFCA
:107FE0001150E9F7F2DF1F91089580E0E8DFEE27F6
:047FF000FF270994CA
:027FFE00040479
:00000001FF
