:100000000C9461000C9473000C9473000C947300B6
:100010000C9473000C9473000C9473000C94730094
:100020000C9473000C9473000C9473000C94730084
:100030000C9473000C9473000C9473000C94730074
:100040000C9426010C9473000C9473000C947300B0
:100050000C9473000C9473000C9473000C94730054
:100060000C9473000C94730000000000240027001F
:100070002A0000000000250028002B0000000000DE
:1000800023002600290004040404040404040202DA
:100090000202020203030303030301020408102007
:1000A0004080010204081020010204081020000012
:1000B0000008000201000003040700000000000027
:1000C000000011241FBECFEFD8E0DEBFCDBF21E07E
:1000D000A0E0B1E001C01D92AB30B207E1F70E9491
:1000E00070010C94AD020C940000833081F028F470
:1000F000813099F08230A9F008958730A9F08830D6
:10010000C9F08430B1F4809180008F7D03C080916C
:1001100080008F7780938000089584B58F7784BDA9
:10012000089584B58F7DFBCF8091B0008F77809349
:10013000B00008958091B0008F7DF9CFCF93DF9309
:10014000282F30E0F901E255FF4F8491F901E6567E
:10015000FF4FD491F901EA57FF4FC491CC23A1F08E
:1001600081110E947500EC2FF0E0EE0FFF1FE458A4
:10017000FF4FA591B491EC91ED2381E090E009F45B
:1001800080E0DF91CF91089580E090E0FACF1F9357
:10019000CF93DF93282F30E0F901E255FF4F849190
:1001A000F901E656FF4FD491F901EA57FF4FC49188
:1001B000CC23A9F0162F81110E947500EC2FF0E0DE
:1001C000EE0FFF1FEE58FF4FA591B4918FB7F89433
:1001D000EC91111108C0D095DE23DC938FBFDF9125
:1001E000CF911F910895DE2BF8CFCF93DF9390E04E
:1001F000FC01E656FF4F24918A579F4FFC018491E2
:100200008823D1F090E0880F991FFC01E859FF4F37
:10021000A591B491FC01EE58FF4FC591D4916111A5
:100220000EC09FB7F8948C91E22FE0958E238C93AB
:100230002881E223E8839FBFDF91CF9108958FB794
:10024000F894EC91E22BEC938FBFF6CF1F920F92B4
:100250000FB60F9211242F933F938F939F93AF93D9
:10026000BF938091070190910801A0910901B0917D
:100270000A013091060123E0230F2D3758F501962E
:10028000A11DB11D209306018093070190930801E1
:10029000A0930901B0930A0180910201909103019A
:1002A000A0910401B09105010196A11DB11D80939B
:1002B000020190930301A0930401B0930501BF9143
:1002C000AF919F918F913F912F910F900FBE0F9003
:1002D0001F90189526E8230F0296A11DB11DD2CFBD
:1002E000789484B5826084BD84B5816084BD85B511
:1002F000826085BD85B5816085BD80916E0081601D
:1003000080936E00109281008091810082608093C2
:1003100081008091810081608093810080918000C4
:100320008160809380008091B10084608093B100EF
:100330008091B00081608093B00080917A008460E9
:1003400080937A0080917A00826080937A00809115
:100350007A00816080937A0080917A00806880932F
:100360007A001092C100C0E061E08C2F0E94F5007D
:10037000CF5FC730C9F760E087E00E94F50060E01A
:1003800088E00E94F500C0E0D0E001E010E087E0E6
:100390000E949E00019789F487E00E949E000197C9
:1003A000D9F38091000190910101893091058CF57C
:1003B0000296909301018093000188E00E949E00C4
:1003C000019789F488E00E949E000197D9F38091FB
:1003D0000001909101018A30910504F501969093F6
:1003E000010180930001E0910001F0910101EA30E8
:1003F000F10508F042C0E150FE4F0C94A702130231
:100400002102430259026302690283028D029F02A4
:10041000A1021092010110920001CFCF10930101AF
:1004200000930001E0CF60E080E00E94C70061E03F
:1004300081E00E94C70061E082E00E94C70061E0A5
:1004400079C060E080E00E94C70060E081E00E9427
:10045000C70060E082E00E94C70060E083E00E9485
:10046000C70061E084E00E94C70061E085E00E946F
:10047000C70060E086E00E94C700209709F487CF9C
:100480000E94000084CF61E080E00E94C70060E02D
:1004900081E00E94C70061E082E00E94C70061E045
:1004A00083E00E94C70060E084E00E94C70061E032
:1004B00025C061E080E00E94C70060E081E00E940A
:1004C000C70060E0B9CF61E080E00E94C70061E052
:1004D000BDCF61E080E00E94C70061E081E00E9442
:1004E000C70060E082E00E94C70061E083E00E94F4
:1004F000C70061E084E00E94C70060E085E00E94E0
:10050000C70061E0B7CF61E080E00E94C70061E012
:1005100081E00E94C70061E0E5CF60E080E00E94DA
:10052000C70060E081E00E94C70060E082E00E94B6
:10053000C70060E083E00E94C70061E0B5CF61E0E2
:1005400073CF61E080E00E94C70061E0B7CFEE0F9B
:0E055000FF1F0590F491E02D0994F894FFCF61
:00000001FF
