:100000000C945D000C9485000C9485000C94850084
:100010000C9485000C9485000C9485000C9485004C
:100020000C9485000C9485000C9485000C9485003C
:100030000C9485000C9485000C9485000C9485002C
:100040000C945D020C9485000C942B020C94050218
:100050000C9485000C9485000C9485000C9485000C
:100060000C9485000C94850000000008000201003B
:100070000003040700000000000000000000000072
:10008000250028002B0000000000240027002A0083
:10009000040404040404040402020202020203032E
:1000A0000303030301020408102040800102040836
:1000B0001020010204081020420411241FBECFEFBB
:1000C000D8E0DEBFCDBF11E0A0E0B1E0EEEEF8E099
:1000D00002C005900D92A231B107D9F724E0A2E148
:1000E000B1E001C01D92A632B207E1F710E0CDE504
:1000F000D0E004C02197FE010E946F04CC35D107E7
:10010000C9F70E94A7020C9475040C940000AF92EA
:10011000BF92CF92DF92EF92FF920F931F93CF93F4
:10012000DF936C017B018B01040F151FEB015E0156
:10013000AE18BF08C017D10759F06991D601ED91EB
:10014000FC910190F081E02DC6010995892B79F78A
:10015000C501DF91CF911F910F91FF90EF90DF903C
:10016000CF90BF90AF900895FC01538D448D252F03
:1001700030E0842F90E0821B930B541710F0CF9641
:10018000089501970895FC01918D828D981761F073
:10019000A28DAE0FBF2FB11D5D968C91928D9F5F8A
:1001A0009F73928F90E008958FEF9FEF0895FC0169
:1001B000918D828D981731F0828DE80FF11D858D1C
:1001C00090E008958FEF9FEF0895FC01918D228DAF
:1001D000892F90E0805C9F4F821B91098F73992734
:1001E000089589E893E00E94E50021E0892B09F455
:1001F00020E0822F089580E090E0892B29F00E9472
:10020000F10081110C9400000895FC01A48DA80F49
:10021000B92FB11DA35ABF4F2C91848D90E0019648
:100220008F739927848FA689B7892C93A089B18968
:100230008C91837080648C93938D848D981306C009
:100240000288F389E02D80818F7D80830895EF926D
:10025000FF920F931F93CF93DF93EC0181E0888F80
:100260009B8D8C8D98131AC0E889F989808185FF50
:1002700015C09FB7F894EE89FF896083E889F989F2
:1002800080818370806480839FBF81E090E0DF91F4
:10029000CF911F910F91FF90EF900895F62E0B8D47
:1002A00010E00F5F1F4F0F731127E02E8C8D8E1102
:1002B0000CC00FB607FCFACFE889F989808185FF69
:1002C000F5CFCE010E940501F1CFEB8DEC0FFD2F94
:1002D000F11DE35AFF4FF0829FB7F8940B8FEA8924
:1002E000FB8980818062CFCFCF93DF93EC01888D33
:1002F0008823B9F0AA89BB89E889F9898C9185FDA1
:1003000003C0808186FD0DC00FB607FCF7CF8C912E
:1003100085FFF2CF808185FFEDCFCE010E940501E0
:10032000E9CFDF91CF91089590E0FC01E859FF4FAC
:100330002491FC01EC55FF4F3491FC01E057FF4F35
:10034000E491EE23C9F0222339F0233001F1A8F41F
:10035000213019F1223029F1F0E0EE0FFF1FE458AF
:10036000FF4FA591B4918FB7F894EC91611126C01D
:1003700030953E233C938FBF08952730A9F0283055
:10038000C9F0243049F7809180008F7D03C08091AF
:1003900080008F7780938000DFCF84B58F7784BD16
:1003A000DBCF84B58F7DFBCF8091B0008F778093BA
:1003B000B000D2CF8091B0008F7DF9CF3E2BDACF45
:1003C0003FB7F8948091170190911801A0911901FD
:1003D000B0911A0126B5A89B05C02F3F19F00196D0
:1003E000A11DB11D3FBFBA2FA92F982F8827BC018F
:1003F000CD01620F711D811D911D42E0660F771FB7
:10040000881F991F4A95D1F708951F920F920FB632
:100410000F9211242F933F934F935F936F937F938A
:100420008F939F93AF93BF93EF93FF9389E893E0EC
:100430000E940501FF91EF91BF91AF919F918F9124
:100440007F916F915F914F913F912F910F900FBED0
:100450000F901F9018951F920F920FB60F921124B4
:100460002F938F939F93EF93FF93E0919903F091D4
:100470009A038081E0919F03F091A00382FD1BC04D
:1004800090818091A2038F5F8F732091A3038217C5
:1004900041F0E091A203F0E0E757FC4F958F809385
:1004A000A203FF91EF919F918F912F910F900FBE1B
:1004B0000F901F9018958081F4CF1F920F920FB666
:1004C0000F9211242F933F938F939F93AF93BF93DA
:1004D0008091130190911401A0911501B091160122
:1004E0003091120123E0230F2D3758F50196A11DFD
:1004F000B11D209312018093130190931401A093D6
:100500001501B09316018091170190911801A091E7
:100510001901B0911A010196A11DB11D8093170117
:1005200090931801A0931901B0931A01BF91AF9154
:100530009F918F913F912F910F900FBE0F901F9021
:10054000189526E8230F0296A11DB11DD2CF7894ED
:1005500084B5826084BD84B5816084BD85B58260C8
:1005600085BD85B5816085BD80916E008160809379
:100570006E001092810080918100826080938100E2
:1005800080918100816080938100809180008160F2
:10059000809380008091B10084608093B10080914D
:1005A000B00081608093B00080917A008460809375
:1005B0007A0080917A00826080937A0080917A003C
:1005C000816080937A0080917A00806880937A00BD
:1005D0001092C10081E090E0C82FD92FFE01EC55A8
:1005E000FF4F9491FE01E057FF4F2491222399F091
:1005F00030E0220F331FF901EA57FF4FA591B49164
:10060000F901E458FF4F259134912FB7F894EC91FC
:10061000E92BEC932FBF61E00E9494012196CE015B
:100620002E97D1F621E430E030931C0120931B017A
:100630008EE390E090931E0180931D019093200122
:1006400080931F0190932201809321013093240114
:10065000209323018EE690E090932601809325015C
:100660008EE590E0909328018093270110922A0153
:10067000109229018EE790E090932C0180932B013A
:1006800090932E0180932D0180E690E0909380015D
:1006900080937F012BE530E030938201209381012C
:1006A0004BE350E0509384014093830130938601E3
:1006B00020938501909388018093870129E630E09B
:1006C000309384022093830226E530E03093860243
:1006D00020938502309388022093870230938A0208
:1006E0002093890290938C0280938B02E09199036E
:1006F000F0919A0382E08083E0919503F091960354
:100700001082E0919703F09198038FEC8083109210
:10071000A103E0919D03F0919E0386E08083E09128
:100720009B03F0919C03808180618083E0919B0317
:10073000F0919C03808188608083E0919B03F0911D
:100740009C03808180688083E0919B03F0919C03EF
:1007500080818F7D80832AE0D22E30E0E32E30E04E
:10076000F32E89E893E00E94E500181619069CF51F
:1007700089E893E00E94C300EC0190938803809382
:100780008703682F89E893E00E942701CE018154F6
:1007900091094A9728F4E797D0938803C093870379
:1007A00080918703909188039C01215631092A3159
:1007B000310528F4CD979093880380938703809127
:1007C000870390918803C0978A30910520F4909315
:1007D0008803809387038091870390918803D89E34
:1007E0008001D99E100D1124055E1E4FC9E0F8014D
:1007F000A190B1908F01D2E0B501617077278D2F64
:100800000E949401B594A794DF5FD930A9F760E006
:100810008C2F0E9494010E94E0012B013C018AE090
:10082000882E912CA12CB12C0E94E001641975092D
:1008300086099709683E734081059105A8F3F1E0A8
:100840008F1A9108A108B10828EE420E23E0521E2B
:10085000611C711C81149104A104B10429F761E0A9
:100860008C2F0E949401CF5FCE3009F6E114F10481
:1008700009F477CF0E94F100882309F472CF0E9417
:1008800000006FCFE9E8F3E01382128288EE93E074
:10089000A0E0B0E084839583A683B78384E091E0F1
:1008A0009183808385EC90E09587848784EC90E049
:1008B0009787868780EC90E0918B808B81EC90E02D
:1008C000938B828B82EC90E0958B848B86EC90E00E
:1008D000978B868B118E128E138E148E0895EE0FC9
:0E08E000FF1F0590F491E02D0994F894FFCFCE
:1008EE000000000027018700B4007401E500C3007A
:0208FE00D70021
:00000001FF
