:100000000C9461000C9473000C9473000C947300B6
:100010000C9473000C9473000C9473000C94730094
:100020000C9473000C9473000C9473000C94730084
:100030000C9473000C9473000C9473000C94730074
:100040000C9426010C9473000C9473000C947300B0
:100050000C9473000C9473000C9473000C94730054
:100060000C9473000C94730000000000240027001F
:100070002A0000000000250028002B0000000000DE
:1000800023002600290004040404040404040202DA
:100090000202020203030303030301020408102007
:1000A0004080010204081020010204081020000012
:1000B0000008000201000003040700000000000027
:1000C000000011241FBECFEFD8E0DEBFCDBF21E07E
:1000D000A0E0B1E001C01D92A131B207E1F70E949A
:1000E00070010C94FA020C940000833081F028F423
:1000F000813099F08230A9F008958730A9F08830D6
:10010000C9F08430B1F4809180008F7D03C080916C
:1001100080008F7780938000089584B58F7784BDA9
:10012000089584B58F7DFBCF8091B0008F77809349
:10013000B00008958091B0008F7DF9CFCF93DF9309
:10014000282F30E0F901E255FF4F8491F901E6567E
:10015000FF4FD491F901EA57FF4FC491CC23A1F08E
:1001600081110E947500EC2FF0E0EE0FFF1FE458A4
:10017000FF4FA591B491EC91ED2381E090E009F45B
:1001800080E0DF91CF91089580E090E0FACF1F9357
:10019000CF93DF93282F30E0F901E255FF4F849190
:1001A000F901E656FF4FD491F901EA57FF4FC49188
:1001B000CC23A9F0162F81110E947500EC2FF0E0DE
:1001C000EE0FFF1FEE58FF4FA591B4918FB7F89433
:1001D000EC91111108C0D095DE23DC938FBFDF9125
:1001E000CF911F910895DE2BF8CFCF93DF9390E04E
:1001F000FC01E656FF4F24918A579F4FFC018491E2
:100200008823D1F090E0880F991FFC01E859FF4F37
:10021000A591B491FC01EE58FF4FC591D4916111A5
:100220000EC09FB7F8948C91E22FE0958E238C93AB
:100230002881E223E8839FBFDF91CF9108958FB794
:10024000F894EC91E22BEC938FBFF6CF1F920F92B4
:100250000FB60F9211242F933F938F939F93AF93D9
:10026000BF9380910D0190910E01A0910F01B0916B
:10027000100130910C0123E0230F2D3758F5019622
:10028000A11DB11D20930C0180930D0190930E01CF
:10029000A0930F01B0931001809108019091090182
:1002A000A0910A01B0910B010196A11DB11D80938F
:1002B000080190930901A0930A01B0930B01BF912B
:1002C000AF919F918F913F912F910F900FBE0F9003
:1002D0001F90189526E8230F0296A11DB11DD2CFBD
:1002E000789484B5826084BD84B5816084BD85B511
:1002F000826085BD85B5816085BD80916E0081601D
:1003000080936E00109281008091810082608093C2
:1003100081008091810081608093810080918000C4
:100320008160809380008091B10084608093B100EF
:100330008091B00081608093B00080917A008460E9
:1003400080937A0080917A00826080937A00809115
:100350007A00816080937A0080917A00806880932F
:100360007A001092C10061E083E00E94F50061E034
:1003700084E00E94F50061E085E00E94F50061E004
:1003800088E00E94F50061E089E00E94F50060E0ED
:100390008AE00E94F50060E08BE00E94F50060E0DA
:1003A0008DE00E94F50060E08CE00E94F50060E0C6
:1003B00083E00E94C70061E084E00E94C70061E022
:1003C00088E00E94C70060E089E00E94C70083EBDC
:1003D000E82E80E0F82E00E010E0CC24C394D12C6D
:1003E0008AE00E949E00019721F58AE00E949E000B
:1003F0000197D9F3C0910601D0910701C0FD38C023
:1004000061E083E00E94C70060E084E00E94C700D2
:1004100060E088E00E94C70061E089E00E94C700B8
:10042000D0920501C09204012196D0930701C09398
:1004300006018BE00E949E00019709F04BC08BE003
:100440000E949E000197D9F3C0910201D09103014F
:10045000C0FD23C061E083E00E94C70060E084E04B
:100460000E94C70061E088E00E94C70060E02AC0E7
:1004700060E083E00E94C70061E084E00E94C70062
:1004800061E088E00E94C70060E089E00E94C70048
:100490001092050110920401C7CF80910401909140
:1004A00005018130910509F056C061E083E00E94AA
:1004B000C70060E084E00E94C70060E088E00E941E
:1004C000C70061E089E00E94C7002196D093030134
:1004D000C09302018DE00E949E00019789F48DE097
:1004E0000E949E000197D9F3809100019091010133
:1004F0008C3E91052CF44496909301018093000169
:100500008CE00E949E00019789F48CE00E949E007E
:100510000197D9F3809100019091010185319105F6
:100520002CF044979093010180930001C091000149
:10053000D091010161E085E00E94F5002097A1F4CF
:1005400060E085E00E94C7000115110509F448CF5D
:100550000E94000045CF892B09F0B7CF60E083E00F
:100560000E94C70061E07BCFCF3FD10511F461E06D
:10057000E8CFF7018491833019F140F48130B1F074
:100580008230C9F0C038D10594F7DACF873011F145
:10059000883041F18430B1F780918000806280938F
:1005A0008000D0938B00C0938A00CECF84B5806842
:1005B00084BDC7BDC9CF84B5806284BDC8BDC4CF6A
:1005C00080918000806880938000D0938900C093E0
:1005D0008800BACF8091B00080688093B000C0934B
:1005E000B300B2CF8091B00080628093B000C0931E
:0805F000B400AACFF894FFCF7C
:00000001FF
