:100000000C9428010C9459010C9459010C94590139
:100010000C9459010C9459010C9459010C945901F8
:100020000C9459010C9459010C9459010C945901E8
:100030000C9459010C9459010C9459010C945901D8
:100040000C9459010C9459010C9459010C945901C8
:100050000C9459010C9459010C9459010C940F04FF
:100060000C9459010C94D9030C94AF030C945901CE
:100070000C9459010C9459010C9459010C94590198
:100080000C9459010C9459010C9459010C94590188
:100090000C9459010C9459010C9459010C94590178
:1000A0000C9459010C9459010C9459010C94590168
:1000B0000C9459010C9459010C9459010C94590158
:1000C0000C9459010C9459010C9459010C94590148
:1000D0000C9459010C9459010C9459010C94590138
:1000E0000C9459010C94EF020C94E5020C94BF029D
:1000F0000C94E7050C94FD020C94F5020C94C402D8
:100100000C94D6020C94E2020C94F9020C94F101C6
:100110000C943E020C94AB010C945B010C94110303
:100120000C9403030C94EB020C9415030C949701AC
:100130000C94DA020C94B9010C940B030C94880112
:100140000C94DE020C94070300000A0B02090C0D4C
:100150000E0807030401000000000000000000007A
:10016000000000000000000000000000000000008F
:10017000000000001211100000000000000000004C
:10018000000000000000000000000000000000006F
:100190002200250028002B002E003100340002012F
:1001A0000000050108010B010000210024002700C8
:1001B0002A002D0030003300010100000401070176
:1001C0000A010505050507050808080802020202DC
:1001D0000A0A0808040404040101010101010101E3
:1001E0000303030303030303040707070C0C0C0CAE
:1001F0000C0C0C0C02020202060606060606060697
:100200000B0B0B0B0B0B0B0B010210202008081023
:100210002040102040800201020108040201010276
:10022000040810204080804020100804020180044F
:1002300002018040201008040201080402010102AA
:100240000408102040800102040810204080E705C7
:1002500011241FBECFEFD1E2DEBFCDBF00E00CBF47
:1002600012E0A0E0B2E0ECE3FCE000E00BBF02C073
:1002700007900D92A432B107D9F722E0A4E2B2E0D0
:1002800001C01D92AF3CB207E1F711E0C8E2D1E036
:1002900000E006C021970109802FFE010E9414068C
:1002A000C732D10780E00807A9F70E9459040C94CF
:1002B0001C060C940000AF92BF92CF92DF92EF9297
:1002C000FF920F931F93CF93DF936C017B018B0100
:1002D000040F151FEB015E01AE18BF08C017D10750
:1002E00059F06991D601ED91FC910190F081E02DDA
:1002F000C6011995892B79F7C501DF91CF911F911F
:100300000F91FF90EF90DF90CF90BF90AF90089546
:10031000FC01538D448D252F30E0842F90E0821B0B
:10032000930B541710F0CF96089501970895FC0190
:10033000918D828D981761F0A28DAE0FBF2FB11DE8
:100340005D968C91928D9F5F9F73928F90E0089540
:100350008FEF9FEF0895FC01918D828D981731F0FA
:10036000828DE80FF11D858D90E008958FEF9FEF4E
:100370000895FC01918D228D892F90E0805C9F4F24
:10038000821B91098F739927089582E392E00E945E
:10039000B90121E0892B09F420E0822F0895FC01A6
:1003A000A48DA80FB92FB11DA35ABF4F2C91848DD6
:1003B00090E001968F739927848FA689B7892C9333
:1003C000A089B1898C91837080648C93938D848D86
:1003D000981306C00288F389E02D80818F7D808389
:1003E0000895EF92FF920F931F93CF93DF93EC0149
:1003F00081E0888F9B8D8C8D98131AC0E889F989CC
:10040000808185FF15C09FB7F894EE89FF896083CE
:10041000E889F98980818370806480839FBF81E04F
:1004200090E0DF91CF911F910F91FF90EF90089591
:10043000F62E0B8D10E00F5F1F4F0F731127E02E6C
:100440008C8D8E110CC00FB607FCFACFE889F989A4
:10045000808185FFF5CFCE010E94CF01F1CFEB8DDA
:10046000EC0FFD2FF11DE35AFF4FF0829FB7F89478
:100470000B8FEA89FB8980818062CFCFCF93DF9396
:10048000EC01888D8823B9F0AA89BB89E889F989AC
:100490008C9185FD03C0808186FD0DC00FB607FCE1
:1004A000F7CF8C9185FFF2CF808185FFEDCFCE0114
:1004B0000E94CF01E9CFDF91CF91089580E090E0D5
:1004C000892B29F00E94C50181110E94000080E063
:1004D00090E0892B49F080E090E0892B29F00E9480
:1004E000000081110E94000080E090E0892B49F01B
:1004F00080E090E0892B29F00E94000081110E9489
:10050000000080E090E0892B49F080E090E0892BAA
:1005100029F00E94000081110C9400000895282FFA
:1005200030E0F901E85BFE4F9491F901E85FFD4F7F
:1005300044912E533E4FF9012491222309F435C0F2
:10054000992311F191509231F8F4E92FF0E08827C6
:10055000E355FD4F8F4F0C941406DE02E202BF02FA
:10056000D602DA02C402E502EB02EF02F502F9025A
:10057000FD0203030703C4020B031103150380915B
:1005800080008F7780938000E22FF0E0EE0FFF1F56
:10059000E257FE4FA591B4918FB7F894EC91611199
:1005A00048C040954E234C938FBF089580918000A2
:1005B0008F7DE8CF80918000877FE4CF84B58F77EF
:1005C00084BDE2CF84B58F7DFBCF8091B0008F7763
:1005D0008093B000D9CF8091B0008F7DF9CF80910A
:1005E00090008F7780939000CFCF809190008F7D87
:1005F000F9CF80919000877FF5CF8091A0008F7711
:100600008093A000C1CF8091A0008F7DF9CF809111
:10061000A000877FF5CF809120018F778093200104
:10062000B3CF809120018F7DF9CF80912001877F0A
:10063000F5CF4E2BB8CF3FB7F89480912902909117
:100640002A02A0912B02B0912C0226B5A89B05C0CE
:100650002F3F19F00196A11DB11D3FBFBA2FA92F41
:10066000982F8827BC01CD01620F711D811D911D3E
:1006700042E0660F771F881F991F4A95D1F70895AA
:100680008F929F92AF92BF92CF92DF92EF92FF92A2
:100690004B015C010E941B036B017C010E941B0348
:1006A0006C197D098E099F09683E7340810591058B
:1006B000A8F321E0821A9108A108B10888EEC80EBB
:1006C00083E0D81EE11CF11C81149104A104B10443
:1006D00029F7FF90EF90DF90CF90BF90AF909F9061
:1006E0008F900895CF93DF93D82FC62F60E08BE0D3
:1006F0000E948F026C2F8AE00E948F02C2E06D2F51
:1007000061708C2F0E948F02D595CF5FCA30B9F7E8
:1007100061E08BE00E948F0262E070E080E090E098
:100720000E94400360E08BE00E948F0262E070E074
:1007300080E090E0DF91CF910C94400360E080680E
:100740000C947203CF93DF93EC018991882321F0FD
:1007500061E00E947203F9CFDF91CF9108951F925B
:100760000F920FB60F9211240BB60F922F933F9357
:100770004F935F936F937F938F939F93AF93BF93A9
:10078000EF93FF9382E392E00E94CF01FF91EF91FC
:10079000BF91AF919F918F917F916F915F914F9199
:1007A0003F912F910F900BBE0F900FBE0F901F9097
:1007B00018951F920F920FB60F9211240BB60F923D
:1007C0002F938F939F93EF93FF93E0914202F091C9
:1007D00043028081E0914802F091490282FD1DC0F0
:1007E000908180914B028F5F8F7320914C02821712
:1007F00041F0E0914B02F0E0EE5CFD4F958F80936D
:100800004B02FF91EF919F918F912F910F900BBE13
:100810000F900FBE0F901F9018958081F2CF1F92FE
:100820000F920FB60F9211242F933F938F939F93A4
:10083000AF93BF938091250290912602A091270249
:10084000B09128023091240223E0230F2D3758F570
:100850000196A11DB11D209324028093250290933F
:100860002602A0932702B09328028091290290913A
:100870002A02A0912B02B0912C020196A11DB11D5C
:100880008093290290932A02A0932B02B0932C020A
:10089000BF91AF919F918F913F912F910F900FBE7C
:1008A0000F901F90189526E8230F0296A11DB11DE9
:1008B000D2CF789484B5826084BD84B5816084BDD4
:1008C00085B5826085BD85B5816085BD80916E00EE
:1008D000816080936E00109281008091810082601F
:1008E000809381008091810081608093810080915C
:1008F00080008160809380008091B100846080934B
:10090000B1008091B00081608093B000809191002F
:10091000826080939100809191008160809391002A
:10092000809190008160809390008091A10082600E
:100930008093A1008091A10081608093A1008091AB
:10094000A00081608093A00080912101826080934B
:1009500021018091210181608093210180912001FA
:1009600081608093200180917A00846080937A0076
:1009700080917A00826080937A0080917A00816011
:1009800080937A0080917A00806880937A00109238
:10099000C10022E030E0F901E85FFD4F4491F90128
:1009A000EE53FE4F8491882399F090E0880F991FB1
:1009B000FC01E855FE4FA591B491FC01E257FE4FB2
:1009C000859194918FB7F894EC91E42BEC938FBFC1
:1009D0002F5F3F4F2D303105F1F6E7E1F2E0249132
:1009E000E1EDF1E084918823C1F090E0880F991F38
:1009F000FC01E855FE4FC591D491FC01E257FE4F32
:100A0000A591B4919FB7F8948881E22FE0958E2349
:100A100088838C91E823EC939FBF64E170E080E0D1
:100A200090E00E94400360E088E30E94720360E06F
:100A30008FE00E94720360E081E00E94720360E038
:100A400086E00E947203E0914202F091430282E04C
:100A50008083E0913E02F0913F021082E0914002DB
:100A6000F09141028FEC808310924A02E09146029D
:100A7000F091470286E08083E0914402F0914502C4
:100A8000808180618083E0914402F0914502808101
:100A900088608083E0914402F09145028081806803
:100AA0008083E0914402F091450280818F7D8083B4
:100AB00082E192E00E94A20380E490E00E949E0303
:100AC00087E192E00E94A20384E090E00E949E03EE
:100AD00082E392E00E94B901181619060CF074C066
:100AE00082E392E00E949701C82F809331028091A7
:100AF0002F0290913002039741F484E090E00E942D
:100B00009E031092300210922F02C936F1F569E669
:100B100082E392E00E94F101C0912D02D0912E0259
:100B2000C0FD1AC085E490E00E949E038DE192E032
:100B30000E94A20386E490E00E949E038FE192E06F
:100B40000E94A20384E090E00E949E032196D0932D
:100B50002E02C0932D02BCCF85E490E00E949E033C
:100B600081E292E00E94A20386E490E00E949E034C
:100B70008DE192E00E94A20384E090E00E949E0337
:100B800010922E0210922D02A3CFC037B9F061E06F
:100B90008C2F0E9472036C2F82E392E00E94F1017D
:100BA00080912F02909130020196909330028093B1
:100BB0002F0261E08CE00E948F028ACF60E782E31F
:100BC00092E00E94F10184CF0E945E0281CFE2E3B5
:100BD000F2E01382128288EE93E0A0E0B0E084831A
:100BE0009583A683B78384E092E09183808385EC2C
:100BF00090E09587848784EC90E09787868780ECE7
:100C000090E0918B808B81EC90E0938B828B82ECD7
:100C100090E0958B848B86EC90E0978B868B118E81
:100C2000128E138E148E0895EE0FFF1F881F8BBF38
:0C0C30000790F691E02D1994F894FFCF86
:100C3C0000000000F1015B0188013E02B90197013F
:100C4C00AB0150574D3A00524F543A2041480020C6
:040C5C000041000053
:00000001FF
