:100000000C945D000C9485000C9485000C94850084
:100010000C9485000C9485000C9485000C9485004C
:100020000C9485000C9485000C9485000C9485003C
:100030000C9485000C9485000C9485000C9485002C
:100040000C94CC020C9485000C949A020C947402CB
:100050000C9485000C9485000C9485000C9485000C
:100060000C9485000C94850000000008000201003B
:100070000003040700000000000000000000000072
:10008000250028002B0000000000240027002A0083
:10009000040404040404040402020202020203032E
:1000A0000303030301020408102040800102040836
:1000B0001020010204081020820411241FBECFEF7B
:1000C000D8E0DEBFCDBF11E0A0E0B1E0EEE6F9E0A0
:1000D00002C005900D92A432B107D9F721E0A4E245
:1000E000B1E001C01D92AF3CB207E1F710E0CDE5F1
:1000F000D0E004C02197FE010E94AF04CC35D107A7
:10010000C9F70E9416030C94B5040C940000AF923A
:10011000BF92CF92DF92EF92FF920F931F93CF93F4
:10012000DF936C017B018B01040F151FEB015E0156
:10013000AE18BF08C017D10759F06991D601ED91EB
:10014000FC910190F081E02DC6010995892B79F78A
:10015000C501DF91CF911F910F91FF90EF90DF903C
:10016000CF90BF90AF900895FC01538D448D252F03
:1001700030E0842F90E0821B930B541710F0CF9641
:10018000089501970895FC01918D828D981761F073
:10019000A28DAE0FBF2FB11D5D968C91928D9F5F8A
:1001A0009F73928F90E008958FEF9FEF0895FC0169
:1001B000918D828D981731F0828DE80FF11D858D1C
:1001C00090E008958FEF9FEF0895FC01918D228DAF
:1001D000892F90E0805C9F4F821B91098F73992734
:1001E000089582E391E00E94E50021E0892B09F463
:1001F00020E0822F089580E090E0892B29F00E9472
:10020000F10081110C9400000895FC01A48DA80F49
:10021000B92FB11DA35ABF4F2C91848D90E0019648
:100220008F739927848FA689B7892C93A089B18968
:100230008C91837080648C93938D848D981306C009
:100240000288F389E02D80818F7D80830895EF926D
:10025000FF920F931F93CF93DF93EC0181E0888F80
:100260009B8D8C8D98131AC0E889F989808185FF50
:1002700015C09FB7F894EE89FF896083E889F989F2
:1002800080818370806480839FBF81E090E0DF91F4
:10029000CF911F910F91FF90EF900895F62E0B8D47
:1002A00010E00F5F1F4F0F731127E02E8C8D8E1102
:1002B0000CC00FB607FCFACFE889F989808185FF69
:1002C000F5CFCE010E940501F1CFEB8DEC0FFD2F94
:1002D000F11DE35AFF4FF0829FB7F8940B8FEA8924
:1002E000FB8980818062CFCFCF93DF93EC01888D33
:1002F0008823B9F0AA89BB89E889F9898C9185FDA1
:1003000003C0808186FD0DC00FB607FCF7CF8C912E
:1003100085FFF2CF808185FFEDCFCE010E940501E0
:10032000E9CFDF91CF91089590E0FC01E859FF4FAC
:100330002491FC01EC55FF4F3491FC01E057FF4F35
:10034000E491EE23C9F0222339F0233001F1A8F41F
:10035000213019F1223029F1F0E0EE0FFF1FE458AF
:10036000FF4FA591B4918FB7F894EC91611126C01D
:1003700030953E233C938FBF08952730A9F0283055
:10038000C9F0243049F7809180008F7D03C08091AF
:1003900080008F7780938000DFCF84B58F7784BD16
:1003A000DBCF84B58F7DFBCF8091B0008F778093BA
:1003B000B000D2CF8091B0008F7DF9CF3E2BDACF45
:1003C0003FB7F8948091290190912A01A0912B01C7
:1003D000B0912C0126B5A89B05C02F3F19F00196BE
:1003E000A11DB11D3FBFBA2FA92F982F8827BC018F
:1003F000CD01620F711D811D911D42E0660F771FB7
:10040000881F991F4A95D1F708958F929F92AF92B6
:10041000BF92CF92DF92EF92FF924B015C010E945C
:10042000E0016B017C010E94E0016C197D098E09DD
:100430009F09683E734081059105A8F321E0821A67
:100440009108A108B10888EEC80E83E0D81EE11C0F
:10045000F11C81149104A104B10429F7FF90EF90DD
:10046000DF90CF90BF90AF909F908F900895CF93E3
:10047000DF93D82FC62F60E08BE00E9494016C2F91
:100480008AE00E949401C2E06D2F61708C2F0E945F
:100490009401D595CF5FCA30B9F761E08BE00E9437
:1004A000940162E070E080E090E00E94050260E06C
:1004B0008BE00E94940162E070E080E090E0DF91C8
:1004C000CF910C94050260E080680C943702CF93C2
:1004D000DF93EC018991882321F061E00E943702CB
:1004E000F9CFDF91CF9108951F920F920FB60F921F
:1004F00011242F933F934F935F936F937F938F9329
:100500009F93AF93BF93EF93FF9382E391E00E9499
:100510000501FF91EF91BF91AF919F918F917F91D5
:100520006F915F914F913F912F910F900FBE0F9060
:100530001F9018951F920F920FB60F9211242F93B0
:100540008F939F93EF93FF93E0914201F0914301CA
:100550008081E0914801F091490182FD1BC09081AA
:1005600080914B018F5F8F7320914C01821741F076
:10057000E0914B01F0E0EE5CFE4F958F80934B01D4
:10058000FF91EF919F918F912F910F900FBE0F9040
:100590001F9018958081F4CF1F920F920FB60F9283
:1005A00011242F933F938F939F93AF93BF93809189
:1005B000250190912601A0912701B0912801309149
:1005C000240123E0230F2D3758F50196A11DB11DFD
:1005D000209324018093250190932601A093270165
:1005E000B09328018091290190912A01A0912B01BB
:1005F000B0912C010196A11DB11D8093290190930A
:100600002A01A0932B01B0932C01BF91AF919F9130
:100610008F913F912F910F900FBE0F901F901895C3
:1006200026E8230F0296A11DB11DD2CF789484B580
:10063000826084BD84B5816084BD85B5826085BDDE
:1006400085B5816085BD80916E00816080936E006C
:10065000109281008091810082608093810080915E
:10066000810081608093810080918000816080930F
:1006700080008091B10084608093B1008091B000CF
:1006800081608093B00080917A00846080937A00CA
:1006900080917A00826080937A0080917A008160F4
:1006A00080937A0080917A00806880937A0010921B
:1006B000C10022E030E0F901EC55FF4F4491F9010F
:1006C000E057FF4F8491882399F090E0880F991F9D
:1006D000FC01EA57FF4FA591B491FC01E458FF4F8C
:1006E000859194918FB7F894EC91E42BEC938FBFA4
:1006F0002F5F3F4F2D303105F1F6E3EBF0E0249111
:10070000EFE9F0E084918823C1F090E0880F991F11
:10071000FC01EA57FF4FC591D491FC01E458FF4F0B
:10072000A591B4919FB7F8948881E22FE0958E232C
:1007300088838C91E823EC939FBF64E170E080E0B4
:1007400090E00E94050260E088E30E94370260E0CA
:100750008FE00E94370260E081E00E94370260E093
:1007600086E00E943702E0914201F091430182E06D
:100770008083E0913E01F0913F011082E0914001C1
:10078000F09141018FEC808310924A01E091460183
:10079000F091470186E08083E0914401F0914501AA
:1007A000808180618083E0914401F09145018081E6
:1007B00088608083E0914401F091450180818068E8
:1007C0008083E0914401F091450180818F7D808399
:1007D00082E191E00E94670280E490E00E9463025F
:1007E00087E191E00E94670284E090E00E9463024A
:1007F00000E010E082E391E00E94E500181619067F
:100800000CF074C082E391E00E94C300C82F809373
:10081000310180912F0190913001039741F484E0E0
:1008200090E00E9463021092300110922F01C936AD
:10083000F1F569E682E391E00E942701C0912D0164
:10084000D0912E01C0FD1AC085E490E00E946302A1
:100850008DE191E00E94670286E490E00E946302CD
:100860008FE191E00E94670284E090E00E946302C1
:100870002196D0932E01C0932D01BCCF85E490E04A
:100880000E94630281E291E00E94670286E490E0A8
:100890000E9463028DE191E00E94670284E090E093
:1008A0000E94630210922E0110922D01A3CFC03737
:1008B000B9F061E08C2F0E9437026C2F82E391E047
:1008C0000E94270180912F01909130010196909311
:1008D000300180932F0161E08CE00E9494018ACF67
:1008E00060E782E391E00E94270184CF01151105A2
:1008F00009F480CF0E94F100882309F47BCF0E9485
:10090000000078CFE2E3F1E01382128288EE93E0F8
:10091000A0E0B0E084839583A683B78384E091E070
:100920009183808385EC90E09587848784EC90E0C8
:100930009787868780EC90E0918B808B81EC90E0AC
:10094000938B828B82EC90E0958B848B86EC90E08D
:10095000978B868B118E128E138E148E0895EE0F48
:0E096000FF1F0590F491E02D0994F894FFCF4D
:10096E000000000027018700B4007401E500C300F9
:10097E00D70050574D3A00524F543A20414800206C
:04098E000041000024
:00000001FF
